:100000000C942A000C9447000C9447000C94470071
:100010000C9447000C9447000C9447000C94470044
:100020000C9447000C9447000C9447000C94470034
:100030000C9447000C9447000C9447000C94470024
:100040000C9447000C9447000C9447000C94470014
:100050000C94470011241FBECFE5D8E0DEBFCDBF12
:1000600010E0A0E6B0E0E6E1F3E302C005900D92F7
:10007000A43AB107D9F710E0A4EAB0E001C01D929C
:10008000A73AB107E1F70E9401190C9489190C9461
:100090000000EF92FF920F931F937B018C0120E0F1
:1000A00030E040E05FE40E94490388238CF0C801FF
:1000B000B70120E030E040E05FE40E94C1010E940F
:1000C000A9039B01AC01205030404040504806C07D
:1000D000C801B7010E94A9039B01AC01B901CA0183
:1000E0001F910F91FF90EF900895A0E0B0E0EBE733
:1000F000F0E00C945219DC012B01FA019C91923032
:1001000008F439C1EB018881823008F433C194309E
:1001100069F4843009F02FC111969C91119789815F
:10012000981709F428C1A0E6B0E025C1843009F48D
:1001300021C18230A9F4923009F01DC19A01AD01AC
:1001400088E0EA010990AE01E90109929E0181501F
:10015000C1F7E201898111969C918923818308C1AD
:10016000923009F407C112962D903C901397EB0141
:100170008A819B811496AD90BD90CD90DC901797AD
:10018000EC80FD800E811F819101281B390BB90184
:1001900037FF04C066277727621B730B6032710537
:1001A0000CF061C0121613066CF537014801062EDB
:1001B00004C096948794779467940A94D2F721E0C8
:1001C00030E040E050E004C0220F331F441F551FB1
:1001D0006A95D2F721503040404050402E213F21B7
:1001E00040235123211531054105510521F021E01E
:1001F00030E040E050E079018A01E628F72808293C
:1002000019293CC0232BD1F1260E371E350146019A
:10021000062E04C096948794779467940A94D2F734
:1002200021E030E040E050E004C0220F331F441FC3
:10023000551F6A95D2F721503040404050402A2146
:100240003B214C215D21211531054105510521F04E
:1002500021E030E040E050E059016A01A628B728CB
:10026000C828D9280BC0821593052CF01C01AA249C
:10027000BB24650103C0EE24FF24870111969C91E5
:10028000D20111968C91981709F445C0992339F041
:10029000A80197012A193B094C095D0906C0A6016E
:1002A00095012E193F09400B510B57FD08C01182D3
:1002B0003382228224833583468357831DC081E0A5
:1002C00081833382228288279927DC01821B930B4A
:1002D000A40BB50B84839583A683B7830DC0220F2F
:1002E000331F441F551F24833583468357838281E0
:1002F000938101979383828324813581468157813D
:10030000DA01C9010197A109B1098F5F9F4FAF4F72
:10031000BF4328F30BC0918333822282EA0CFB1C7B
:100320000C1D1D1DE482F5820683178383E0808304
:10033000248135814681578157FF1AC0C901AA27F8
:1003400097FDA095BA2F81709070A070B0705695EF
:10035000479537952795822B932BA42BB52B848318
:100360009583A683B7838281938101969383828349
:10037000DF0101C0D201CD01CDB7DEB7E2E10C94BF
:100380006E19A0E2B0E0E7ECF1E00C945E1969832D
:100390007A838B839C832D833E834F835887E9E048
:1003A000EE2EF12CEC0EFD1ECE010196B7010E943F
:1003B000D2048E010F5E1F4FCE010596B8010E9438
:1003C000D2048A8991E089278A8BC701B801AE01DE
:1003D000475E5F4F0E9475000E94FD03A096E6E015
:1003E0000C947A19A0E2B0E0E8EFF1E00C945E1909
:1003F00069837A838B839C832D833E834F835887C5
:10040000F9E0EF2EF12CEC0EFD1ECE010196B701A6
:100410000E94D2048E010F5E1F4FCE010596B801D7
:100420000E94D204C701B801AE01475E5F4F0E942F
:1004300075000E94FD03A096E6E00C947A19A0E2F4
:10044000B0E0E5E2F2E00C94521969837A838B8381
:100450009C832D833E834F835887CE010196BE0136
:10046000675F7F4F0E94D204CE010596BE016F5E8A
:100470007F4F0E94D2049985923088F0898982301A
:10048000C8F0943019F4823051F404C0843029F457
:10049000923081F480E690E0C6C0923049F420E0CA
:1004A0009A858A89981321E02A87CE010996BBC0D4
:1004B000823049F420E09A858A89981321E02A8BBA
:1004C000CE014196B0C02D843E844F8458886D88FB
:1004D0007E888F88988CEE24FF248701AA24BB2471
:1004E000650140E050E060E070E0E0E0F0E0C10174
:1004F00081709070892BE9F0E60CF71C081D191D1E
:100500009A01AB012A0D3B1D4C1D5D1D80E090E062
:10051000A0E0B0E0E614F7040805190520F481E036
:1005200090E0A0E0B0E0BA01A901480F591F6A1F8E
:100530007B1FAA0CBB1CCC1CDD1C97FE08C081E0F5
:1005400090E0A0E0B0E0A82AB92ACA2ADB2A3196B6
:10055000E032F10549F0660C771C881C991C569412
:10056000479437942794C3CFFA85EA892B893C892D
:100570008B859C85280F391F2E5F3F4F17C0CA01FE
:1005800081709070892B61F016950795F794E79428
:1005900080E090E0A0E0B0E8E82AF92A0A2B1B2BC3
:1005A00076956795579547952F5F3F4F77FDE7CF36
:1005B0000CC0440F551F661F771F17FD4160EE0CDE
:1005C000FF1C001F111F21503040403090E05907A0
:1005D00090E0690790E4790760F32B8F3C8FDB0193
:1005E000CA018F779070A070B07080349105A1051A
:1005F000B10561F447FD0AC0E114F10401051105DC
:1006000029F0405C5F4F6F4F7F4F40781A8EFE1786
:1006100011F081E08A8F4D8F5E8F6F8F78A383E01A
:10062000898FCE0149960E94FD03A096E2E10C94C9
:100630006E19A8E1B0E0EFE1F3E00C945E19698374
:100640007A838B839C832D833E834F83588789E0F5
:10065000E82EF12CEC0EFD1ECE010196B7010E9492
:10066000D2048E010F5E1F4FCE010596B8010E9485
:10067000D2048985823040F08989823028F0C70110
:10068000B8010E944A0501C08FEF6896E6E00C941D
:100690007A19A8E1B0E0EFE4F3E00C945E19698305
:1006A0007A838B839C832D833E834F83588789E095
:1006B000E82EF12CEC0EFD1ECE010196B7010E9432
:1006C000D2048E010F5E1F4FCE010596B8010E9425
:1006D000D2048985823040F08989823028F0C701B0
:1006E000B8010E944A0501C08FEF6896E6E00C94BD
:1006F0007A19A8E1B0E0EFE7F3E00C945E196983A2
:100700007A838B839C832D833E834F83588789E034
:10071000E82EF12CEC0EFD1ECE010196B7010E94D1
:10072000D2048E010F5E1F4FCE010596B8010E94C4
:10073000D2048985823040F08989823028F0C7014F
:10074000B8010E944A0501C081E06896E6E00C9479
:100750007A19ACE0B0E0EFEAF3E00C946219698337
:100760007A838B839C83CE010196BE016B5F7F4FA2
:100770000E94D2048D81823061F1823050F1843048
:1007800021F48E81882351F12EC02F81388537FDC9
:1007900020C06E812F3131051CF06623F9F023C093
:1007A0008EE190E0821B930B29853A854B855C8511
:1007B00004C056954795379527958A95D2F76623B5
:1007C000B1F050954095309521953F4F4F4F5F4F79
:1007D0000EC020E030E040E050E009C02FEF3FEFD6
:1007E0004FEF5FE704C020E030E040E050E8B9019F
:1007F000CA012C96E2E00C947E19DF92EF92FF92F0
:100800000F931F93FC01E480F58006811781D1804E
:100810008081823048F480E090E0A0E1B0E0E82AF6
:10082000F92A0A2B1B2BA5C0843009F49FC0823003
:1008300021F4EE24FF24870105C0E114F104010531
:10084000110519F4E0E0F0E096C0628173819FEF3A
:10085000623879070CF05BC022E83FEF261B370BAC
:100860002A3131052CF020E030E040E050E02AC091
:10087000B801A701022E04C0769567955795479554
:100880000A94D2F781E090E0A0E0B0E004C0880FC5
:10089000991FAA1FBB1F2A95D2F70197A109B10979
:1008A0008E219F21A023B1230097A105B10521F03E
:1008B00081E090E0A0E0B0E09A01AB01282B392B59
:1008C0004A2B5B2BDA01C9018F779070A070B07052
:1008D00080349105A105B10539F427FF09C0205CDA
:1008E0003F4F4F4F5F4F04C0215C3F4F4F4F5F4F13
:1008F000E0E0F0E02030A0E03A07A0E04A07A0E402
:100900005A0710F0E1E0F0E079018A0127C0603871
:10091000710564F5FB01E158FF4FD801C7018F77DE
:100920009070A070B07080349105A105B10539F4C4
:10093000E7FE0DC080E490E0A0E0B0E004C08FE3EB
:1009400090E0A0E0B0E0E80EF91E0A1F1B1F17FFA1
:1009500005C016950795F794E794319687E01695AC
:100960000795F794E7948A95D1F705C0EE24FF2404
:100970008701EFEFF0E06E2F679566276795902F60
:100980009F77D794DD24D7948E2F8695492F462BB9
:10099000582F5D29B701CA011F910F91FF90EF9069
:1009A000DF900895FC01DB01408151812281622F9B
:1009B0006F7770E0221F2227221F9381892F880FD3
:1009C000822B282F30E0991F9927991F11969C930D
:1009D000119721153105A9F54115510561057105DD
:1009E00011F482E037C082E89FEF13969C938E93B8
:1009F00012979A01AB0167E0220F331F441F551F66
:100A00006A95D1F783E08C930DC0220F331F441FEA
:100A1000551F12968D919C911397019713969C9355
:100A20008E931297203080E0380780E0480780E4FA
:100A3000580758F314962D933D934D935C93179755
:100A400008952F3F310579F4411551056105710570
:100A500019F484E08C93089564FF03C081E08C93C3
:100A600012C01C9210C02F57304013963C932E9307
:100A7000129783E08C9387E0440F551F661F771F02
:100A80008A95D1F7706414964D935D936D937C9322
:100A9000179708951F93DC01FB019C91923008F495
:100AA00047C08081823008F443C0943051F41196DD
:100AB0001C91843099F58181682F70E0611B710968
:100AC0003FC0843021F0923031F48230B9F181811D
:100AD000882389F12DC011961C9111978230F1F075
:100AE00081811817D9F412962D913C911397828128
:100AF00093818217930794F028173907BCF0149656
:100B00008D919D910D90BC91A02D248135814681C0
:100B10005781281739074A075B0718F4112341F05A
:100B20000AC082179307A407B50740F4112319F0F0
:100B300061E070E005C06FEF7FEF02C060E070E041
:100B4000CB011F910895DF93CF93CDB7DEB72D97DB
:100B50000FB6F894DEBF0FBECDBF9B838A83198288
:100B6000EA81FB818081869586958770882F90E049
:100B70008830910514F01982C6C2EA81FB81808118
:100B80008370282F30E03D872C878C859D858130B0
:100B9000910509F4BFC02C853D85223031052CF428
:100BA0008C859D85009771F0ADC22C853D852230E6
:100BB000310509F457C18C859D858330910509F471
:100BC000F9C1A0C281E08983EA81FB81808182959D
:100BD000869587708370282F30E03B872A878A8527
:100BE0009B858130910521F12A853B852230310595
:100BF00009F456C08A859B85009709F089C0AAE34D
:100C0000B0E0EAE3F0E08081482FEA81FB81808157
:100C1000869586958770282F30E081E090E0022E3F
:100C200002C0880F991F0A94E2F7842B8C936BC241
:100C3000AAE3B0E0EAE3F0E08081482FEA81FB819B
:100C40008081869586958770282F30E081E090E03E
:100C500002C0880F991F2A95E2F7809584238C9310
:100C6000ABE3B0E0EBE3F0E08081482FEA81FB8169
:100C70008081869586958770282F30E081E090E00E
:100C8000022E02C0880F991F0A94E2F7842B8C93DE
:100C9000A0E5B0E0E0E5F0E0808184608C9333C2B1
:100CA000AAE3B0E0EAE3F0E08081482FEA81FB812B
:100CB0008081869586958770282F30E081E090E0CE
:100CC00002C0880F991F2A95E2F7809584238C93A0
:100CD000ABE3B0E0EBE3F0E08081482FEA81FB81F9
:100CE0008081869586958770282F30E081E090E09E
:100CF000022E02C0880F991F0A94E2F7842B8C936E
:100D0000A0E5B0E0E0E5F0E080818B7F8C93FBC153
:100D10001982F9C181E08983EA81FB818081829512
:100D2000869587708370282F30E0398728878885DB
:100D300099858130910521F1288539852230310549
:100D400009F456C088859985009709F089C0A7E302
:100D5000B0E0E7E3F0E08081482FEA81FB81808109
:100D6000869586958770282F30E081E090E0022EEE
:100D700002C0880F991F0A94E2F7842B8C93C3C199
:100D8000A7E3B0E0E7E3F0E08081482FEA81FB8150
:100D90008081869586958770282F30E081E090E0ED
:100DA00002C0880F991F2A95E2F7809584238C93BF
:100DB000A8E3B0E0E8E3F0E08081482FEA81FB811E
:100DC0008081869586958770282F30E081E090E0BD
:100DD000022E02C0880F991F0A94E2F7842B8C938D
:100DE000A0E5B0E0E0E5F0E0808184608C938BC109
:100DF000A7E3B0E0E7E3F0E08081482FEA81FB81E0
:100E00008081869586958770282F30E081E090E07C
:100E100002C0880F991F2A95E2F7809584238C934E
:100E2000A8E3B0E0E8E3F0E08081482FEA81FB81AD
:100E30008081869586958770282F30E081E090E04C
:100E4000022E02C0880F991F0A94E2F7842B8C931C
:100E5000A0E5B0E0E0E5F0E080818B7F8C9353C1AA
:100E6000198251C181E08983EA81FB818081829569
:100E7000869587708370282F30E03F832E838E8184
:100E80009F818130910521F12E813F8122303105F2
:100E900009F456C08E819F81009709F089C0A4E3B0
:100EA000B0E0E4E3F0E08081482FEA81FB818081BB
:100EB000869586958770282F30E081E090E0022E9D
:100EC00002C0880F991F0A94E2F7842B8C931BC1F0
:100ED000A4E3B0E0E4E3F0E08081482FEA81FB8105
:100EE0008081869586958770282F30E081E090E09C
:100EF00002C0880F991F2A95E2F7809584238C936E
:100F0000A5E3B0E0E5E3F0E08081482FEA81FB81D2
:100F10008081869586958770282F30E081E090E06B
:100F2000022E02C0880F991F0A94E2F7842B8C933B
:100F3000A0E5B0E0E0E5F0E0808184608C93E3C060
:100F4000A4E3B0E0E4E3F0E08081482FEA81FB8194
:100F50008081869586958770282F30E081E090E02B
:100F600002C0880F991F2A95E2F7809584238C93FD
:100F7000A5E3B0E0E5E3F0E08081482FEA81FB8162
:100F80008081869586958770282F30E081E090E0FB
:100F9000022E02C0880F991F0A94E2F7842B8C93CB
:100FA000A0E5B0E0E0E5F0E080818B7F8C93ABC002
:100FB0001982A9C081E08983EA81FB8180818295C1
:100FC000869587708370282F30E03D832C838C8139
:100FD0009D818130910521F12C813D8122303105A7
:100FE00009F456C08C819D81009709F089C0A1E366
:100FF000B0E0E1E3F0E08081482FEA81FB8180816D
:10100000869586958770282F30E081E090E0022E4B
:1010100002C0880F991F0A94E2F7842B8C9373C047
:10102000A1E3B0E0E1E3F0E08081482FEA81FB81B9
:101030008081869586958770282F30E081E090E04A
:1010400002C0880F991F2A95E2F7809584238C931C
:10105000A2E3B0E0E2E3F0E08081482FEA81FB8187
:101060008081869586958770282F30E081E090E01A
:10107000022E02C0880F991F0A94E2F7842B8C93EA
:10108000A0E5B0E0E0E5F0E0808184608C933BC0B7
:10109000A4E3B0E0E4E3F0E08081482FEA81FB8143
:1010A0008081869586958770282F30E081E090E0DA
:1010B00002C0880F991F2A95E2F7809584238C93AC
:1010C000A5E3B0E0E5E3F0E08081482FEA81FB8111
:1010D0008081869586958770282F30E081E090E0AA
:1010E000022E02C0880F991F0A94E2F7842B8C937A
:1010F000A0E5B0E0E0E5F0E080818B7F8C9303C059
:10110000198201C0198289812D960FB6F894DEBF2D
:101110000FBECDBFCF91DF910895DF93CF93CDB7B1
:10112000DEB728970FB6F894DEBF0FBECDBF9C8305
:101130008B837E836D831A8286E08983EB81FC81B9
:101140008081869586958770882F90E088309105FC
:1011500014F01A82BBC0EB81FC8180818370282F40
:1011600030E038872F834F8158854130510509F48D
:101170003DC08F8198858230910534F42F81388568
:101180002115310571F0A1C04F81588542305105BC
:1011900009F451C08F8198858330910509F470C09E
:1011A00094C0EAE3F0E08081282F30E0EB81FC81FD
:1011B0008081869586958770882F90E0A90102C06E
:1011C000559547958A95E2F7CA018170898389818F
:1011D000813019F08981882339F4ED81FE8189817C
:1011E000808381E08A8372C01A8270C0E7E3F0E0F6
:1011F0008081282F30E0EB81FC8180818695869567
:101200008770882F90E0A90102C0559547958A956F
:10121000E2F7CA01817089838981813019F089815F
:10122000882339F4ED81FE818981808381E08A837E
:101230004DC01A824BC0E4E3F0E08081282F30E0FB
:10124000EB81FC818081869586958770882F90E060
:10125000A90102C0559547958A95E2F7CA018170A8
:1012600089838981813019F08981882339F4ED815E
:10127000FE818981808381E08A8328C01A8226C00A
:10128000E1E3F0E08081282F30E0EB81FC81808178
:10129000869586958770882F90E0A90102C05595A4
:1012A00047958A95E2F7CA018170898389818130E7
:1012B00019F08981882339F4ED81FE818981808349
:1012C00081E08A8303C01A8201C01A828A8128962B
:1012D0000FB6F894DEBF0FBECDBFCF91DF9108955A
:1012E000DF93CF93CDB7DEB72E970FB6F894DEBF5E
:1012F0000FBECDBF9B838A836C831982EA81FB81F9
:101300008081869586958770882F90E0883091053A
:1013100034F4EA81FB8180818076803211F4198275
:101320009EC1EA81FB8180818370282F30E03E8757
:101330002D878D859E858130910509F475C02D8599
:101340003E85223031052CF48D859E85009771F005
:1013500085C12D853E852230310509F4C3C08D85B8
:101360009E858330910509F41BC178C181E0898392
:101370008C81282F30E03C872B878B859C850097BC
:1013800059F12B853C852130310509F04BC0ABE389
:10139000B0E0EBE3F0E08081482FEA81FB818081BF
:1013A000869586958770282F30E081E090E0022EA8
:1013B00002C0880F991F0A94E2F7842B8C938C81CA
:1013C0008170EA81FB81982F979599279795808165
:1013D0008F77892B808343C1ABE3B0E0EBE3F0E090
:1013E0008081482FEA81FB81808186958695877070
:1013F000282F30E081E090E0022E02C0880F991F74
:101400000A94E2F7809584238C938C818170EA8121
:10141000FB81982F97959927979580818F77892BB6
:1014200080831DC119821BC181E089838C81282F93
:1014300030E03A87298789859A85009759F129856F
:101440003A852130310509F04BC0A8E3B0E0E8E36C
:10145000F0E08081482FEA81FB8180818695869526
:101460008770282F30E081E090E0022E02C0880FC4
:10147000991F0A94E2F7842B8C938C818170EA8106
:10148000FB81982F97959927979580818F77892B46
:101490008083E5C0A8E3B0E0E8E3F0E08081482F76
:1014A000EA81FB818081869586958770282F30E0C0
:1014B00081E090E0022E02C0880F991F0A94E2F7A3
:1014C000809584238C938C818170EA81FB81982F95
:1014D00097959927979580818F77892B8083BFC0B7
:1014E0001982BDC081E089838C81282F30E0388744
:1014F0002F838F819885009759F12F81388521306E
:10150000310509F04BC0A5E3B0E0E5E3F0E08081F0
:10151000482FEA81FB818081869586958770282FE8
:1015200030E081E090E0022E02C0880F991F0A94FB
:10153000E2F7842B8C938C818170EA81FB81982F58
:1015400097959927979580818F77892B808387C07E
:10155000A5E3B0E0E5E3F0E08081482FEA81FB817C
:101560008081869586958770282F30E081E090E015
:10157000022E02C0880F991F0A94E2F780958423F7
:101580008C938C818170EA81FB81982F97959927A4
:10159000979580818F77892B808361C019825FC086
:1015A00081E089838C81282F30E03E832D838D81DB
:1015B0009E81009759F12D813E812130310509F03E
:1015C0004BC0A2E3B0E0E2E3F0E08081482FEA8183
:1015D000FB818081869586958770282F30E081E099
:1015E00090E0022E02C0880F991F0A94E2F7842B24
:1015F0008C938C818170EA81FB81982F9795992734
:10160000979580818F77892B808329C0A2E3B0E0F2
:10161000E2E3F0E08081482FEA81FB8180818695BA
:1016200086958770282F30E081E090E0022E02C07E
:10163000880F991F0A94E2F7809584238C938C81FC
:101640008170EA81FB81982F9795992797958081E2
:101650008F77892B808303C0198201C01982898109
:101660002E960FB6F894DEBF0FBECDBFCF91DF919F
:101670000895DF93CF93CDB7DEB728970FB6F894D0
:10168000DEBF0FBECDBF9C838B837E836D831A82AA
:1016900086E08983EB81FC818081869586958770C1
:1016A000882F90E08830910534F4EB81FC818081B3
:1016B0008076882311F41A82BBC0EB81FC81808183
:1016C0008370282F30E038872F834F815885413031
:1016D000510509F43DC08F8198858230910534F41D
:1016E0002F8138852115310571F0A1C04F815885B2
:1016F0004230510509F451C08F819885833091059E
:1017000009F470C094C0E9E3F0E08081282F30E054
:10171000EB81FC818081869586958770882F90E08B
:10172000A90102C0559547958A95E2F7CA018170D3
:1017300089838981813019F08981882339F4ED8189
:10174000FE818981808381E08A8372C01A8270C0A1
:10175000E6E3F0E08081282F30E0EB81FC8180819E
:10176000869586958770882F90E0A90102C05595CF
:1017700047958A95E2F7CA01817089838981813012
:1017800019F08981882339F4ED81FE818981808374
:1017900081E08A834DC01A824BC0E3E3F0E0808190
:1017A000282F30E0EB81FC818081869586958770BB
:1017B000882F90E0A90102C0559547958A95E2F7D8
:1017C000CA01817089838981813019F089818823D8
:1017D00039F4ED81FE818981808381E08A8328C08C
:1017E0001A8226C0E0E3F0E08081282F30E0EB8110
:1017F000FC818081869586958770882F90E0A9016D
:1018000002C0559547958A95E2F7CA018170898390
:101810008981813019F08981882339F4ED81FE8135
:101820008981808381E08A8303C01A8201C01A8281
:101830008A8128960FB6F894DEBF0FBECDBFCF9138
:10184000DF910895DF93CF9300D000D00F92CDB7F2
:10185000DEB79B838A831982EA81FB81808186952A
:1018600086958770882F90E08830910534F4EA815E
:10187000FB8180818076803211F41982DAC0EA819E
:10188000FB8180818370282F30E03D832C838C8105
:101890009D818130910509F444C02C813D81223025
:1018A00031052CF48C819D81009771F0C1C02C8191
:1018B0003D812230310509F461C08C819D818330E6
:1018C000910509F488C0B4C0ABE3B0E0EBE3F0E00D
:1018D0008081482FEA81FB8180818695869587707B
:1018E000282F30E081E090E0022E02C0880F991F7F
:1018F0000A94E2F784278C93EA81FB818081881F18
:101900008827881F80958170EA81FB81982F9795A1
:101910009927979580818F77892B808381E08983B0
:1019200088C0A8E3B0E0E8E3F0E08081482FEA81D6
:10193000FB818081869586958770282F30E081E035
:1019400090E0022E02C0880F991F0A94E2F78427C4
:101950008C93EA81FB818081881F8827881F80956E
:101960008170EA81FB81982F9795992797958081BF
:101970008F77892B808381E089835BC0A5E3B0E00A
:10198000E5E3F0E08081482FEA81FB818081869544
:1019900086958770282F30E081E090E0022E02C00B
:1019A000880F991F0A94E2F784278C93EA81FB81C0
:1019B0008081881F8827881F80958170EA81FB813C
:1019C000982F97959927979580818F77892B80837A
:1019D00081E089832EC0A2E3B0E0E2E3F0E0808101
:1019E000482FEA81FB818081869586958770282F14
:1019F00030E081E090E0022E02C0880F991F0A9427
:101A0000E2F784278C93EA81FB818081881F8827F5
:101A1000881F80958170EA81FB81982F979599277F
:101A2000979580818F77892B808381E0898301C09E
:101A3000198289810F900F900F900F900F90CF9186
:101A4000DF910895DF93CF9300D00F92CDB7DEB72B
:101A50009B838A831982EA81FB81808186958695A2
:101A60008770882F90E08830910534F4EA81FB81FB
:101A700080818076803211F4198209C08A819B812D
:101A80000E94A3058A819B8160E00E947009898180
:101A90000F900F900F90CF91DF910895DF93CF9328
:101AA00000D000D00F92CDB7DEB79B838A83198216
:101AB000EA81FB8180818770882F90E085309105D5
:101AC00014F0198247C0EA81FB8180818770282F3A
:101AD00030E03D832C838C819D8181309105F1F034
:101AE0002C813D81223031052CF48C819D81009721
:101AF00061F02FC02C813D8122303105C1F08C81F5
:101B00009D8183309105E1F024C0AAE3B0E0EA8131
:101B1000FB8182818C9381E089831CC0A7E3B0E0C4
:101B2000EA81FB8182818C9381E0898313C0A4E3E5
:101B3000B0E0EA81FB8182818C9381E089830AC0D5
:101B4000A1E3B0E0EA81FB8182818C9381E089830B
:101B500001C0198289810F900F900F900F900F9004
:101B6000CF91DF910895DF93CF93CDB7DEB727975D
:101B70000FB6F894DEBF0FBECDBF9B838A837D83F3
:101B80006C831982EA81FB8180818770882F90E0C5
:101B90008530910514F0198247C0EA81FB8180816C
:101BA0008770282F30E03F832E838E819F81813084
:101BB0009105F1F02E813F81223031052CF48E8188
:101BC0009F81009761F02FC02E813F812230310527
:101BD000C1F08E819F8183309105E1F024C0EAE35A
:101BE000F0E08081EC81FD81808381E089831CC0ED
:101BF000E7E3F0E08081EC81FD81808381E08983EF
:101C000013C0E4E3F0E08081EC81FD81808381E01A
:101C100089830AC0E1E3F0E08081EC81FD8180836B
:101C200081E0898301C01982898127960FB6F894D3
:101C3000DEBF0FBECDBFCF91DF910895DF93CF936D
:101C400000D000D000D0CDB7DEB79B838A836C83F1
:101C50001982EA81FB8180818770882F90E085302E
:101C6000910514F019824FC0EA81FB818081877051
:101C7000282F30E03E832D838D819E818130910518
:101C800001F12D813E81223031052CF48D819E8120
:101C9000009761F037C02D813E8122303105E1F09F
:101CA0008D819E818330910511F12CC0EBE3F0E032
:101CB0008C818083EA81FB818C81818381E08983AF
:101CC00022C0E8E3F0E08C818083EA81FB818C8193
:101CD000818381E0898317C0E5E3F0E08C81808314
:101CE000EA81FB818C81818381E089830CC0E2E3FE
:101CF000F0E08C818083EA81FB818C81818381E0AB
:101D0000898301C01982898126960FB6F894DEBFB7
:101D10000FBECDBFCF91DF910895DF93CF93CDB7A5
:101D2000DEB727970FB6F894DEBF0FBECDBF9B83FB
:101D30008A837D836C831982EA81FB81808187702D
:101D4000882F90E08530910514F0198247C0EA8110
:101D5000FB8180818770282F30E03F832E838E8126
:101D60009F8181309105F1F02E813F812230310534
:101D70002CF48E819F81009761F02FC02E813F81CE
:101D800022303105C1F08E819F8183309105E1F0D1
:101D900024C0E9E3F0E08081EC81FD81808381E073
:101DA00089831CC0E6E3F0E08081EC81FD818083C3
:101DB00081E0898313C0E3E3F0E08081EC81FD8161
:101DC000808381E089830AC0E0E3F0E08081EC81D8
:101DD000FD81808381E0898301C0198289812796F2
:101DE0000FB6F894DEBF0FBECDBFCF91DF9108953F
:101DF000DF93CF9300D000D00F92CDB7DEB79B8397
:101E00008A831982EA81FB8180818770882F90E024
:101E10008530910514F0198267C0EA81FB818081C9
:101E20008770282F30E03D832C838C819D81813009
:101E3000910531F12C813D81223031052CF48C81CA
:101E40009D81009761F04FC02C813D81223031058A
:101E500041F18C819D8183309105A1F144C0ABE3B8
:101E6000B0E0EA81FB81818180958C93EA81FB81DE
:101E700081818095EA81FB81818381E0898334C0FF
:101E8000A8E3B0E0EA81FB81818180958C93EA81AF
:101E9000FB8181818095EA81FB81818381E0898357
:101EA00023C0A5E3B0E0EA81FB81818180958C931A
:101EB000EA81FB8181818095EA81FB81818381E0D8
:101EC000898312C0A2E3B0E0EA81FB818181809521
:101ED0008C93EA81FB8181818095EA81FB818183FA
:101EE00081E0898301C0198289810F900F900F9042
:101EF0000F900F90CF91DF910895DF93CF9300D093
:101F000000D0CDB7DEB79C838B831982EB81FC8137
:101F100080818770882F90E08530910564F4EB8193
:101F2000FC8180818695869586958770882F90E0C4
:101F30008830910514F0198239C0EB81FC818081D1
:101F40008770282F2370EB81FC818081982F9695D4
:101F5000969596959770EB81FC818081382F331F81
:101F60003327331F23708A818C7F822B8A83892FAA
:101F70008770982F990F990F8A81837E892B8A8386
:101F80008A818F7980628A83932F97959927979575
:101F90008A818F77892B8A83CE0102960E94A305BE
:101FA000882311F4198202C081E0898389810F900E
:101FB0000F900F900F90CF91DF910895DF93CF9303
:101FC000CDB7DEB7A3970FB6F894DEBF0FBECDBF77
:101FD00099A388A37BA36AA31D8E86E08E8FE8A1B8
:101FE000F9A180818770282F2370E8A1F9A1808151
:101FF000982F9695969596959770E8A1F9A180816E
:10200000382F331F3327331F23708F8D8C7F822B04
:102010008F8F892F8770982F990F990F8F8D837EBF
:10202000892B8F8F8F8D8F7980628F8F932F9795CC
:10203000992797958F8D8F77892B8F8FCE014F960C
:102040009E01225E3F4FB9010E94390B882311F493
:102050001D8E39C1E8A1F9A180818074882309F01F
:1020600095C08E8D813009F088C080E090E0A0EFAF
:10207000B2E4898F9A8FAB8FBC8F698D7A8D8B8DEF
:102080009C8D20E030E04AE755E40E941F02DC010D
:10209000CB018D8B9E8BAF8BB88F6D897E898F899D
:1020A000988D20E030E040E85FE30E9479038823C8
:1020B0002CF481E090E09C8B8B8B3FC06D897E89F6
:1020C0008F89988D20E03FEF4FE757E40E94190376
:1020D00018164CF5698D7A8D8B8D9C8D20E030E043
:1020E00040E251E40E941F02DC01CB01BC01CD01A2
:1020F0000E944900DC01CB019C8B8B8B0FC080E9D7
:1021000091E09A8B898B89899A890197F1F79A8B4B
:10211000898B8B899C8901979C8B8B8B8B899C8964
:10212000009769F71DC06D897E898F89988D0E94FF
:102130004900DC01CB019C8B8B8B8B899C89988B14
:102140008F878F8598890197F1F7988B8F8708C0C3
:10215000CE014F969E01225E3F4FB9010E94390B7E
:102160008E8D8823A9F7EAA1FBA181E08083E8A1F5
:10217000F9A1808180688083A4C0EAA1FBA11082BC
:10218000E8A1F9A180818F7780839BC0E8A1F9A1A4
:1021900080818074882309F494C08E8D882309F08F
:1021A00087C080E090E0A0EFB2E48B879C87AD878A
:1021B000BE876B857C858D859E8520E030E04AE773
:1021C00055E40E941F02DC01CB018F839887A98709
:1021D000BA876F81788589859A8520E030E040E86C
:1021E0005FE30E94790388232CF481E090E09E83D2
:1021F0008D833FC06F81788589859A8520E03FEF88
:102200004FE757E40E94190318164CF56B857C853F
:102210008D859E8520E030E040E251E40E941F025F
:10222000DC01CB01BC01CD010E944900DC01CB01E6
:102230009E838D830FC080E991E09C838B838B818B
:102240009C810197F1F79C838B838D819E810197FF
:102250009E838D838D819E81009769F71DC06F815C
:10226000788589859A850E944900DC01CB019E838F
:102270008D838D819E819A83898389819A8101973B
:10228000F1F79A83898308C0CE014F969E01225EA2
:102290003F4FB9010E94390B8E8D8130A9F7EAA119
:1022A000FBA11082E8A1F9A180818F77808309C00A
:1022B000EAA1FBA181E08083E8A1F9A18081806887
:1022C000808381E08D8F8D8DA3960FB6F894DEBF4D
:1022D0000FBECDBFCF91DF910895DF93CF9300D094
:1022E00000D0CDB7DEB79C838B831982EB81FC8154
:1022F00080818770882F90E08530910564F4EB81B0
:10230000FC8180818695869586958770882F90E0E0
:102310008830910514F0198248C0EB81FC818081DE
:102320008770282F2370EB81FC818081982F9695F0
:10233000969596959770EB81FC818081382F329528
:10234000369536953370317023708A818C7F822B5D
:102350008A83892F8770982F990F990F8A81837E9E
:10236000892B8A838A818F798A83932F97959927DE
:1023700097958A818F77892B8A83CE0102960E9456
:10238000A305882311F4198210C08A81881F882729
:10239000881F282FCE010296622F0E947009882381
:1023A00011F4198202C081E0898389810F900F9016
:1023B0000F900F90CF91DF910895DF93CF9300D0CE
:1023C00000D0CDB7DEB79C838B831982EB81FC8173
:1023D00080818770282F2370EB81FC818081982F6A
:1023E0009695969596959770EB81FC818081382F14
:1023F0003295369536953370317023708A818C7F93
:10240000822B8A83892F8770982F990F990F8A8141
:10241000837E892B8A838A818F798A83932F9795EC
:10242000992797958A818F77892B8A83CE01029687
:1024300061E00E947009882311F4198212C08A8118
:10244000881F8827881FEB81FC818170982F9295C7
:10245000990F990F907C80818F7B892B808381E0FD
:10246000898389810F900F900F900F90CF91DF910A
:102470000895DF93CF9300D000D0CDB7DEB79C8313
:102480008B831982EB81FC8180818770282F2370D8
:10249000EB81FC818081982F969596959695977003
:1024A000EB81FC818081382F3295369536953370DB
:1024B000317023708A818C7F822B8A83892F877069
:1024C000982F990F990F8A81837E892B8A838A811D
:1024D0008F798A83932F9795992797958A818F77FC
:1024E000892B8A83CE01029660E00E9470098823BE
:1024F00011F4198212C08A81881F8827881FEB81F6
:10250000FC818170982F9295990F990F907C808112
:102510008F7B892B808381E0898389810F900F9045
:102520000F900F90CF91DF910895DF93CF9300D05C
:1025300000D0CDB7DEB79C838B831982EB81FC8101
:1025400080818770282F2370EB81FC818081982FF8
:102550009695969596959770EB81FC818081382FA2
:102560003295369536953370317023708A818C7F21
:10257000822B8A83892F8770982F990F990F8A81D0
:10258000837E892B8A838A818F798A83932F97957B
:10259000992797958A818F77892B8A83CE01029616
:1025A0000E94220C882311F4198212C08A81881F8C
:1025B0008827881FEB81FC818170982F9295990F55
:1025C000990F907C80818F7B892B808381E0898328
:1025D00089810F900F900F900F90CF91DF91089508
:1025E000DF93CF93CDB7DEB7A1970FB6F894DEBFD8
:1025F0000FBECDBF99A388A31E8E81E08D8FE8A169
:10260000F9A180818770282F2370E8A1F9A180812A
:10261000982F9695969596959770E8A1F9A1808147
:10262000382F3295369536953370317023708F8DF3
:102630008C7F822B8F8F892F8770982F990F990FFE
:102640008F8D837E892B8F8F8F8D8F798F8F932F97
:102650009795992797958F8D8F77892B8F8F05C1A8
:10266000CE014F960E94220C882311F41E8E12C0B8
:102670008F8D881F8827881FE8A1F9A18170982F66
:102680009295990F990F907C80818F7B892B808305
:1026900081E08E8F80E090E0AAEFB3E4898F9A8F7B
:1026A000AB8FBC8F698D7A8D8B8D9C8D20E030E057
:1026B0004AE755E40E941F02DC01CB018D8B9E8B03
:1026C000AF8BB88F6D897E898F89988D20E030E03F
:1026D00040E85FE30E94790388232CF481E090E0D6
:1026E0009C8B8B8B3FC06D897E898F89988D20E074
:1026F0003FEF4FE757E40E94190318164CF5698D18
:102700007A8D8B8D9C8D20E030E040E251E40E9478
:102710001F02DC01CB01BC01CD010E944900DC019C
:10272000CB019C8B8B8B0FC080E991E09A8B898BBE
:1027300089899A890197F1F79A8B898B8B899C8972
:1027400001979C8B8B8B8B899C89009769F714C0B0
:102750006D897E898F89988D0E944900DC01CB01AB
:102760009C8B8B8B8B899C89988B8F878F85988985
:102770000197F1F7988B8F87CE014F960E94220C1C
:1027800080E090E0AAEFB3E48B879C87AD87BE879B
:102790006B857C858D859E8520E030E04AE755E499
:1027A0000E941F02DC01CB018F839887A987BA871B
:1027B0006F81788589859A8520E030E040E85FE385
:1027C0000E94790388232CF481E090E09E838D831E
:1027D0003FC06F81788589859A8520E03FEF4FE77C
:1027E00057E40E94190318164CF56B857C858D857E
:1027F0009E8520E030E040E251E40E941F02DC01AF
:10280000CB01BC01CD010E944900DC01CB019E83BC
:102810008D830FC080E991E09C838B838B819C81A9
:102820000197F1F79C838B838D819E8101979E8315
:102830008D838D819E81009769F714C06F817885A3
:1028400089859A850E944900DC01CB019E838D8396
:102850008D819E819A83898389819A810197F1F77D
:102860009A8389838D8D81508D8F8D8D882309F07A
:10287000F7CE8E8DA1960FB6F894DEBF0FBECDBFFA
:10288000CF91DF910895DF93CF9300D000D00F92C6
:10289000CDB7DEB79D838C831A82EC81FD81808168
:1028A0008770882F90E0853091052CF4EC81FD81B4
:1028B0008281883010F01A8238C0EC81FD818281DB
:1028C000898326C0EC81FD8180818770982F937069
:1028D00089818150282F27701B8293708B818C7F78
:1028E000892B8B83822F8770982F990F990F8B815B
:1028F000837E892B8B83CE0103960E94A3058823B8
:1029000011F41A8202C081E08A838981815089830F
:102910008981282F332727FD3095EC81FD81818126
:10292000882F90E0281739076CF68A810F900F9056
:102930000F900F900F90CF91DF910895DF93CF9379
:1029400000D000D000D0CDB7DEB79E838D831B8230
:102950001A82ED81FE81828189834AC0ED81FE81E8
:102960008381282F30E08981992787FD9095A901DF
:1029700002C0559547958A95E2F7CA0181708A830E
:10298000ED81FE8180818770982F93708981282F37
:1029900027708A81382F317093708C818C7F892BBE
:1029A0008C83822F8770982F990F990F8C81837E4B
:1029B000892B8C838C818F798C83932F9795992782
:1029C00097958C818F77892B8C838C81881F8827A2
:1029D000881F282FCE010496622F0E947009882339
:1029E00011F41B8202C081E08B838981815089832D
:1029F0008981282F332727FD3095ED81FE81818144
:102A0000882F90E0281739070CF0A8CF8B812696E5
:102A10000FB6F894DEBF0FBECDBFCF91DF91089502
:102A2000DF93CF9300D000D00F92CDB7DEB79D8358
:102A30008C831A82EC81FD818281898330C0EC8194
:102A4000FD8180818770982F93708981282F27704E
:102A500093708B818C7F892B8B83822F8770982F2B
:102A6000990F990F8B81837E892B8B838B818F7933
:102A70008B838B818F778B838B81881F8827881F1F
:102A8000282FCE010396622F0E947009882311F42B
:102A90001A8202C081E08A83898181508983898179
:102AA000282F332727FD3095EC81FD818181882FE8
:102AB00090E0281739071CF68A810F900F900F902D
:102AC0000F900F90CF91DF910895DF93CF93CDB703
:102AD000DEB7A0970FB6F894DEBF0FBECDBF98A3A8
:102AE0008F8F1E8E81E08D8FF1C08F8D98A10E94F7
:102AF0009E1480E090E0AAEFB3E4898F9A8FAB8FA9
:102B0000BC8F698D7A8D8B8D9C8D20E030E04AE7FB
:102B100055E40E941F02DC01CB018D8B9E8BAF8B95
:102B2000B88F6D897E898F89988D20E030E040E8EC
:102B30005FE30E94790388232CF481E090E09C8B72
:102B40008B8B3FC06D897E898F89988D20E03FEF08
:102B50004FE757E40E94190318164CF5698D7A8DDA
:102B60008B8D9C8D20E030E040E251E40E941F02FA
:102B7000DC01CB01BC01CD010E944900DC01CB018D
:102B80009C8B8B8B0FC080E991E09A8B898B898914
:102B90009A890197F1F79A8B898B8B899C89019788
:102BA0009C8B8B8B8B899C89009769F714C06D89EE
:102BB0007E898F89988D0E944900DC01CB019C8B16
:102BC0008B8B8B899C89988B8F878F8598890197B0
:102BD000F1F7988B8F878F8D98A10E94101580E058
:102BE00090E0AAEFB3E48B879C87AD87BE876B85A7
:102BF0007C858D859E8520E030E04AE755E40E9483
:102C00001F02DC01CB018F839887A987BA876F8168
:102C1000788589859A8520E030E040E85FE30E946E
:102C2000790388232CF481E090E09E838D833FC05C
:102C30006F81788589859A8520E03FEF4FE757E4DB
:102C40000E94190318164CF56B857C858D859E8531
:102C500020E030E040E251E40E941F02DC01CB01A1
:102C6000BC01CD010E944900DC01CB019E838D8314
:102C70000FC080E991E09C838B838B819C810197BD
:102C8000F1F79C838B838D819E8101979E838D8339
:102C90008D819E81009769F714C06F817885898541
:102CA0009A850E944900DC01CB019E838D838D8132
:102CB0009E819A83898389819A810197F1F79A830A
:102CC000898381E08E8F8D8D81508D8F8D8D18162B
:102CD0000CF40BCF8E8DA0960FB6F894DEBF0FBE0E
:102CE000CDBFCF91DF910895DF93CF9300D000D077
:102CF000CDB7DEB79C838B831A8219822DC0898160
:102D0000282F30E08B819C81FC01E20FF31F808132
:102D10008F7980832B813C818981882F90E0820F7D
:102D2000931F0E94A305882311F41A8218C081E022
:102D30008A832B813C818981882F90E0820F931FA9
:102D400060E00E947009882311F41A8208C081E0B3
:102D50008A8389818F5F89838981843080F28A8127
:102D6000882339F1198222C08981282F30E08B8194
:102D70009C81820F931FFC01349680818F79806241
:102D800080838B819C819C012C5F3F4F8981882FA0
:102D900090E0820F931F0E94A305882311F41A82EA
:102DA00008C081E08A8389818F5F8983898184302B
:102DB000D8F28A810F900F900F900F90CF91DF91F2
:102DC0000895DF93CF93CDB7DEB766970FB6F8942B
:102DD000DEBF0FBECDBF9C8B8B8B7E8B6D8B198A1C
:102DE000188A1F861A8AED89FE891082DBC08B89BA
:102DF0009C899C018889882F90E0820F931F0E94F4
:102E0000220C882311F4198AD1C081E0898BB8C0C3
:102E10008B899C899C012C5F3F4F8F85882F90E088
:102E2000820F931F9E012E5E3F4FB9010E94390B06
:102E3000882311F4198AA8C081E0898B8A8981309E
:102E400009F09BC080E090E0A0EFB2E48B879C8704
:102E5000AD87BE876B857C858D859E8520E030E0C3
:102E60004AE755E40E941F02DC01CB018F8398875B
:102E7000A987BA876F81788589859A8520E030E0B7
:102E800040E85FE30E94790388232CF481E090E01E
:102E90009E838D833FC06F81788589859A8520E0E8
:102EA0003FEF4FE757E40E94190318164CF56B8566
:102EB0007C858D859E8520E030E040E251E40E94D3
:102EC0001F02DC01CB01BC01CD010E944900DC01E5
:102ED000CB019E838D830FC080E991E09C838B831F
:102EE0008B819C810197F1F79C838B838D819E81DF
:102EF00001979E838D838D819E81009769F725C000
:102F00006F81788589859A850E944900DC01CB0113
:102F10009E838D838D819E819A83898389819A8105
:102F20000197F1F79A83898310C08B899C899C0152
:102F30002C5F3F4F8F85882F90E0820F931F9E015B
:102F40002E5E3F4FB9010E94390B8A89813069F3A7
:102F50008889482F50E08F85282F30E0CA01880FDC
:102F6000991F880F991F820F931FFC01EC58FF4F88
:102F70008081ED89FE89808307C08F858F5F8F8771
:102F80008F85843008F444CF1F868B899C899C01EF
:102F90008889882F90E0820F931F0E94220C8889D5
:102FA0008F5F888B8889843008F421CF8989669661
:102FB0000FB6F894DEBF0FBECDBFCF91DF9108955D
:102FC000DF93CF93CDB7DEB766970FB6F894DEBF29
:102FD0000FBECDBF9C8B8B8B7E8B6D8B198A188A15
:102FE0001F861A8AED89FE891082DCC08B899C8934
:102FF0009C018889882F90E0820F931F0E94220CE9
:10300000882311F4198AD2C081E0898BB9C08B89D9
:103010009C899C012C5F3F4F8F85882F90E0820F09
:10302000931F9E012E5E3F4FB9010E94390B8823EA
:1030300011F4198AA9C081E0898B8A89813009F04D
:103040009CC080E090E0A0EFB2E48B879C87AD87C6
:10305000BE876B857C858D859E8520E030E04AE7C4
:1030600055E40E941F02DC01CB018F839887A9875A
:10307000BA876F81788589859A8520E030E040E8BD
:103080005FE30E94790388232CF481E090E09E8323
:103090008D833FC06F81788589859A8520E03FEFD9
:1030A0004FE757E40E94190318164CF56B857C8591
:1030B0008D859E8520E030E040E251E40E941F02B1
:1030C000DC01CB01BC01CD010E944900DC01CB0138
:1030D0009E838D830FC080E991E09C838B838B81DD
:1030E0009C810197F1F79C838B838D819E81019751
:1030F0009E838D838D819E81009769F725C06F81A6
:10310000788589859A850E944900DC01CB019E83E0
:103110008D838D819E819A83898389819A8101978C
:10312000F1F79A83898310C08B899C899C012C5F5D
:103130003F4F8F85882F90E0820F931F9E012E5E58
:103140003F4FB9010E94390B8A89813069F3888920
:10315000482F50E08F85282F30E0CA01880F991F33
:10316000880F991F820F931FFC01EC58FF4F80813D
:103170008053ED89FE89808307C08F858F5F8F879D
:103180008F85843008F443CF1F868B899C899C01EE
:103190008889882F90E0820F931F0E94220C8889D3
:1031A0008F5F888B8889843008F420CF8989669660
:1031B0000FB6F894DEBF0FBECDBFCF91DF9108955B
:1031C000DF93CF930F92CDB7DEB7198280E790E0FF
:1031D0000E946D1181E790E00E946D1182E790E0FE
:1031E0000E946D1183E790E00E947D0F88E690E0D9
:1031F0000E94741681E0898389810F90CF91DF91BD
:103200000895DF93CF93CDB7DEB70E94E0180EC0CC
:1032100088E690E024EA30E0B9010E94E11683E7F5
:1032200090E025EA30E0B9010E94DE0F8091A50010
:10323000882321F48091A400882351F38091A50074
:10324000882369F080E790E00E94F01281E790E027
:103250000E94F01282E790E00E94F0121EC080915E
:10326000A4008823D1F08091A400813329F480E761
:1032700090E00E94F01211C08091A400853329F4DF
:1032800081E790E00E94F01208C08091A400893389
:1032900021F482E790E00E94F0121092A4001092B4
:1032A000A500C4CF2F923F924F925F926F927F9270
:1032B0008F929F92AF92BF92CF92DF92EF92FF9246
:1032C0000F931F93CF93DF93CDB7DEB7CA1BDB0BF2
:1032D0000FB6F894DEBF0FBECDBF09942A88398897
:1032E00048885F846E847D848C849B84AA84B9849E
:1032F000C884DF80EE80FD800C811B81AA81B981AA
:10330000CE0FD11D0FB6F894DEBF0FBECDBFED01BD
:063310000895F894FFCFC0
:1033160000000000000000000105090D1115191D2F
:10332600123A1B333132334134353642373839435A
:103336002A30234431323341343536423738394323
:103346002A30234431323341343536423738394313
:043356002A302344B2
:00000001FF
