:100000000C942A000C94881F0C94B51F0C94E21FCA
:100010000C9447000C9447000C94A91B0C944F1BA4
:100020000C947C1B0C94FE1A0C9447100C94F60F45
:100030000C9447000C949B0A0C94C80A0C94690A0F
:100040000C94FF2B0C9447000C9447000C94470031
:100050000C94470011241FBECFE5D8E0DEBFCDBF12
:1000600011E0A0E6B0E0E0E0F9E802C005900D92F2
:10007000AA3CB107D9F712E0AAECB1E001C01D9289
:10008000A330B107E1F70E94AA430C947E440C947C
:100090000000EF92FF920F931F937B018C0120E0F1
:1000A00030E040E05FE40E94F50388238CF0C80153
:1000B000B70120E030E040E05FE40E94C1010E940F
:1000C00055049B01AC01205030404040504806C0D0
:1000D000C801B7010E9455049B01AC01B901CA01D6
:1000E0001F910F91FF90EF900895A0E0B0E0EBE733
:1000F000F0E00C944744DC012B01FA019C91923012
:1001000008F439C1EB018881823008F433C194309E
:1001100069F4843009F02FC111969C91119789815F
:10012000981709F428C1A0E6B0E025C1843009F48D
:1001300021C18230A9F4923009F01DC19A01AD01AC
:1001400088E0EA010990AE01E90109929E0181501F
:10015000C1F7E201898111969C918923818308C1AD
:10016000923009F407C112962D903C901397EB0141
:100170008A819B811496AD90BD90CD90DC901797AD
:10018000EC80FD800E811F819101281B390BB90184
:1001900037FF04C066277727621B730B6032710537
:1001A0000CF061C0121613066CF537014801062EDB
:1001B00004C096948794779467940A94D2F721E0C8
:1001C00030E040E050E004C0220F331F441F551FB1
:1001D0006A95D2F721503040404050402E213F21B7
:1001E00040235123211531054105510521F021E01E
:1001F00030E040E050E079018A01E628F72808293C
:1002000019293CC0232BD1F1260E371E350146019A
:10021000062E04C096948794779467940A94D2F734
:1002200021E030E040E050E004C0220F331F441FC3
:10023000551F6A95D2F721503040404050402A2146
:100240003B214C215D21211531054105510521F04E
:1002500021E030E040E050E059016A01A628B728CB
:10026000C828D9280BC0821593052CF01C01AA249C
:10027000BB24650103C0EE24FF24870111969C91E5
:10028000D20111968C91981709F445C0992339F041
:10029000A80197012A193B094C095D0906C0A6016E
:1002A00095012E193F09400B510B57FD08C01182D3
:1002B0003382228224833583468357831DC081E0A5
:1002C00081833382228288279927DC01821B930B4A
:1002D000A40BB50B84839583A683B7830DC0220F2F
:1002E000331F441F551F24833583468357838281E0
:1002F000938101979383828324813581468157813D
:10030000DA01C9010197A109B1098F5F9F4FAF4F72
:10031000BF4328F30BC0918333822282EA0CFB1C7B
:100320000C1D1D1DE482F5820683178383E0808304
:10033000248135814681578157FF1AC0C901AA27F8
:1003400097FDA095BA2F81709070A070B0705695EF
:10035000479537952795822B932BA42BB52B848318
:100360009583A683B7838281938101969383828349
:10037000DF0101C0D201CD01CDB7DEB7E2E10C94BF
:100380006344A0E2B0E0E7ECF1E00C9453446983ED
:100390007A838B839C832D833E834F835887E9E048
:1003A000EE2EF12CEC0EFD1ECE010196B7010E943F
:1003B00046068E010F5E1F4FCE010596B8010E94C2
:1003C00046068A8991E089278A8BC701B801AE0168
:1003D000475E5F4F0E9475000E947105A096E6E09F
:1003E0000C946F44A0E2B0E0E8EFF1E00C945344C9
:1003F00069837A838B839C832D833E834F835887C5
:10040000F9E0EF2EF12CEC0EFD1ECE010196B701A6
:100410000E9446068E010F5E1F4FCE010596B80161
:100420000E944606C701B801AE01475E5F4F0E94B9
:1004300075000E947105A096E6E00C946F44A0E25E
:10044000B0E0E5E2F2E00C94474469837A838B8361
:100450009C832D833E834F835887CE010196BE0136
:10046000675F7F4F0E944606CE010596BE016F5E14
:100470007F4F0E9446069985923088F089898230A4
:10048000C8F0943019F4823051F404C0843029F457
:10049000923081F480E690E0C6C0923049F420E0CA
:1004A0009A858A89981321E02A87CE010996BBC0D4
:1004B000823049F420E09A858A89981321E02A8BBA
:1004C000CE014196B0C02D843E844F8458886D88FB
:1004D0007E888F88988CEE24FF248701AA24BB2471
:1004E000650140E050E060E070E0E0E0F0E0C10174
:1004F00081709070892BE9F0E60CF71C081D191D1E
:100500009A01AB012A0D3B1D4C1D5D1D80E090E062
:10051000A0E0B0E0E614F7040805190520F481E036
:1005200090E0A0E0B0E0BA01A901480F591F6A1F8E
:100530007B1FAA0CBB1CCC1CDD1C97FE08C081E0F5
:1005400090E0A0E0B0E0A82AB92ACA2ADB2A3196B6
:10055000E032F10549F0660C771C881C991C569412
:10056000479437942794C3CFFA85EA892B893C892D
:100570008B859C85280F391F2E5F3F4F17C0CA01FE
:1005800081709070892B61F016950795F794E79428
:1005900080E090E0A0E0B0E8E82AF92A0A2B1B2BC3
:1005A00076956795579547952F5F3F4F77FDE7CF36
:1005B0000CC0440F551F661F771F17FD4160EE0CDE
:1005C000FF1C001F111F21503040403090E05907A0
:1005D00090E0690790E4790760F32B8F3C8FDB0193
:1005E000CA018F779070A070B07080349105A1051A
:1005F000B10561F447FD0AC0E114F10401051105DC
:1006000029F0405C5F4F6F4F7F4F40781A8EFE1786
:1006100011F081E08A8F4D8F5E8F6F8F78A383E01A
:10062000898FCE0149960E947105A096E2E10C9453
:100630006344A8E1B0E0EFE1F3E00C944F44698338
:100640007A838B839C832D833E834F835887B9E0C5
:10065000EB2EF12CEC0EFD1ECE010196B7010E948F
:1006600046068E010F5E1F4FCE010596B8010E940F
:1006700046062985223008F47EC03989323010F4CC
:10068000B8017CC08A859A8989278A87243011F02D
:10069000223031F4231709F06EC060E670E06EC0BE
:1006A000343039F41D861E861F86188A1C861B86E8
:1006B00004C0323021F484E08987B7015FC02B8504
:1006C0003C858B899C89281B390B3C872B87ED84C3
:1006D000FE840F851889AD88BE88CF88D88CEA142F
:1006E000FB040C051D0540F4EE0CFF1C001F111F40
:1006F000215030403C872B8720E030E040E050E044
:1007000080E090E0A0E0B0E460E070E0EA14FB0478
:100710000C051D0540F0282B392B4A2B5B2BEA18C2
:10072000FB080C091D09B695A79597958795EE0CC2
:10073000FF1C001F111F6F5F7F4F6F31710531F775
:10074000DA01C9018F779070A070B0708034910584
:10075000A105B10561F427FD0AC0E114F10401050A
:10076000110529F0205C3F4F4F4F5F4F20782D87B8
:100770003E874F87588BBE01675F7F4FCB010E943A
:1007800071056896EAE00C946B44A8E1B0E0EBECEC
:10079000F3E00C94534469837A838B839C832D8389
:1007A0003E834F83588789E0E82EF12CEC0EFD1E26
:1007B000CE010196B7010E9446068E010F5E1F4FC3
:1007C000CE010596B8010E9446068985823040F028
:1007D0008989823028F0C701B8010E94BE0601C095
:1007E0008FEF6896E6E00C946F44A8E1B0E0EBEF81
:1007F000F3E00C94534469837A838B839C832D8329
:100800003E834F83588789E0E82EF12CEC0EFD1EC5
:10081000CE010196B7010E9446068E010F5E1F4F62
:10082000CE010596B8010E9446068985823040F0C7
:100830008989823028F0C701B8010E94BE0601C034
:100840008FEF6896E6E00C946F44A8E1B0E0EBE22D
:10085000F4E00C94534469837A838B839C832D83C7
:100860003E834F83588789E0E82EF12CEC0EFD1E65
:10087000CE010196B7010E9446068E010F5E1F4F02
:10088000CE010596B8010E9446068985823040F067
:100890008989823028F0C701B8010E94BE0601C0D4
:1008A00081E06896E6E00C946F44ACE0B0E0EBE5E4
:1008B000F4E00C94574469837A838B839C83CE0144
:1008C0000196BE016B5F7F4F0E9446068D8182308C
:1008D00061F1823050F1843021F48E81882351F10E
:1008E0002EC02F81388537FD20C06E812F31310514
:1008F0001CF06623F9F023C08EE190E0821B930B7D
:1009000029853A854B855C8504C056954795379572
:1009100027958A95D2F76623B1F05095409530958A
:1009200021953F4F4F4F5F4F0EC020E030E040E039
:1009300050E009C02FEF3FEF4FEF5FE704C020E02A
:1009400030E040E050E8B901CA012C96E2E00C9496
:100950007344A8E0B0E0EFEAF4E00C944F447B016C
:100960008C01611571058105910519F482E0898377
:1009700060C083E089838EE1C82ED12CDC82CB82DB
:10098000ED82FE820F831887C801B7010E942205FD
:10099000FC013197F7FF3BC0222733272E1B3F0B6B
:1009A00057016801022E04C0D694C794B794A79447
:1009B0000A94D2F740E050E060E070E081E090E01F
:1009C000A0E0B0E004C0880F991FAA1FBB1F2A95A2
:1009D000D2F70197A109B1098E219F21A023B1234C
:1009E0000097A105B10521F041E050E060E070E022
:1009F0004A295B296C297D294D835E836F83788723
:100A00008EE190E08E1B9F0B9C838B8312C03097EE
:100A100081F00E2E04C0EE0CFF1C001F111F0A9463
:100A2000D2F7ED82FE820F831887CE1ADF0ADC82AE
:100A3000CB821A82CE0101960E9471052896EAE0C7
:100A40000C946B44EF92FF920F931F937B018C01E8
:100A500080E0E81680E0F80681E0080780E01807EB
:100A600088F48FEFE816F1040105110531F028F044
:100A700088E090E0A0E0B0E017C080E090E0A0E067
:100A8000B0E012C080E0E81680E0F80680E00807D9
:100A900081E0180728F088E190E0A0E0B0E004C011
:100AA00080E190E0A0E0B0E020E230E040E050E003
:100AB000281B390B4A0B5B0B04C016950795F7945E
:100AC000E7948A95D2F7F701E859FF4F8081281BF8
:100AD000310941095109C9011F910F91FF90EF9010
:100AE0000895DF92EF92FF920F931F93FC01E48031
:100AF000F58006811781D1808081823048F480E0C2
:100B000090E0A0E1B0E0E82AF92A0A2B1B2BA5C04F
:100B1000843009F49FC0823021F4EE24FF24870141
:100B200005C0E114F1040105110519F4E0E0F0E05D
:100B300096C0628173819FEF623879070CF05BC0C9
:100B400022E83FEF261B370B2A3131052CF020E03D
:100B500030E040E050E02AC0B801A701022E04C0F6
:100B600076956795579547950A94D2F781E090E07E
:100B7000A0E0B0E004C0880F991FAA1FBB1F2A95F0
:100B8000D2F70197A109B1098E219F21A023B1239A
:100B90000097A105B10521F081E090E0A0E0B0E070
:100BA0009A01AB01282B392B4A2B5B2BDA01C901A7
:100BB0008F779070A070B07080349105A105B10559
:100BC00039F427FF09C0205C3F4F4F4F5F4F04C0EF
:100BD000215C3F4F4F4F5F4FE0E0F0E02030A0E05E
:100BE0003A07A0E04A07A0E45A0710F0E1E0F0E07D
:100BF00079018A0127C06038710564F5FB01E1586D
:100C0000FF4FD801C7018F779070A070B07080340B
:100C10009105A105B10539F4E7FE0DC080E490E02F
:100C2000A0E0B0E004C08FE390E0A0E0B0E0E80E08
:100C3000F91E0A1F1B1F17FF05C016950795F7948D
:100C4000E794319687E016950795F794E7948A958F
:100C5000D1F705C0EE24FF248701EFEFF0E06E2FFF
:100C6000679566276795902F9F77D794DD24D79453
:100C70008E2F8695492F462B582F5D29B701CA0123
:100C80001F910F91FF90EF90DF900895FC01DB0121
:100C9000408151812281622F6F7770E0221F2227CD
:100CA000221F9381892F880F822B282F30E0991FD4
:100CB0009927991F11969C93119721153105A9F534
:100CC000411551056105710511F482E037C082E8D4
:100CD0009FEF13969C938E9312979A01AB0167E056
:100CE000220F331F441F551F6A95D1F783E08C9361
:100CF0000DC0220F331F441F551F12968D919C91DA
:100D00001397019713969C938E931297203080E04F
:100D1000380780E0480780E4580758F314962D936D
:100D20003D934D935C93179708952F3F310579F4C8
:100D3000411551056105710519F484E08C930895FE
:100D400064FF03C081E08C9312C01C9210C02F5727
:100D5000304013963C932E93129783E08C9387E058
:100D6000440F551F661F771F8A95D1F7706414963C
:100D70004D935D936D937C93179708951F93DC01BA
:100D8000FB019C91923008F447C08081823008F4C6
:100D900043C0943051F411961C91843099F58181AF
:100DA000682F70E0611B71093FC0843021F09230E0
:100DB00031F48230B9F18181882389F12DC01196F7
:100DC0001C9111978230F1F081811817D9F4129695
:100DD0002D913C911397828193818217930794F010
:100DE00028173907BCF014968D919D910D90BC91F8
:100DF000A02D2481358146815781281739074A075C
:100E00005B0718F4112341F00AC082179307A40767
:100E1000B50740F4112319F061E070E005C06FEFF1
:100E20007FEF02C060E070E0CB011F910895DF9377
:100E3000CF930F92CDB7DEB7198280E00E944407AE
:100E4000898380E00E94870789838091F5019091D2
:100E5000F6012091F7013091F801B9010E940308D1
:100E600089838091F9019091FB012091FC013091DF
:100E7000FA01692F422F232F0E94DA088983898182
:100E80000F90CF91DF910895DF93CF9300D0CDB72E
:100E9000DEB78A831982EAE2F0E08A81817081708C
:100EA000982F990F990F990F8081877F892B8083C5
:100EB00081E0898389810F900F90CF91DF91089510
:100EC000DF93CF9300D00F92CDB7DEB79B838A8399
:100ED00019828091FA01873069F4EAE2F0E08A81B0
:100EE0009B81892F99278170982F917080818E7FA7
:100EF000892B8083ECE2F0E08A81808381E0898322
:100F000089810F900F900F90CF91DF910895DF931B
:100F1000CF9300D0CDB7DEB78A831982EAE2F0E042
:100F20008A8181708170982F9295907F80818F7EC9
:100F3000892B808381E0898389810F900F90CF91E5
:100F4000DF910895DF93CF9300D00F92CDB7DEB736
:100F50009B838A831982EA81FB8111821082EBE2F2
:100F6000F0E0808182958F708170282F30E0EBE275
:100F7000F0E08081869586958170882F90E0822BA5
:100F8000932B009789F0ECE2F0E08081882F90E0CD
:100F9000EA81FB8191838083EA81FB8184E094EE86
:100FA00091838083198228C0EBE2F0E08081807811
:100FB0008823D1F38091FA01873059F4EAE2F0E016
:100FC000808186958170882F90E0EA81FB819183F2
:100FD0008083EA81FB8180819181382F2227ECE296
:100FE000F0E08081882F90E0822B932BEA81FB81B7
:100FF0009183808381E0898389810F900F900F9086
:10100000CF91DF910895DF93CF93CDB7DEB72997C6
:101010000FB6F894DEBF0FBECDBF9D838C837F8358
:101020006E831B821A821982EAE2F0E08081869543
:10103000869586958170282F30E0EBE2F0E0808184
:101040008295869587708170882F90E08095909525
:10105000822393230097A1F4EAE2F0E08081829555
:101060008F708170282F30E0EBE2F0E08081881FE4
:101070008827881F882F90E082239323009711F000
:101080001B828EC08091F901282F30E03987288794
:101090008885998581309105C1F12885398522306F
:1010A00031052CF488859985009741F078C0288512
:1010B0003985243031050CF072C04EC08E819F817D
:1010C0009C0122953295307F3227207F32278C81F8
:1010D0009D81B9010E94E343CB0101979A838983E3
:1010E000E9E2F0E089818083E0E4F0E089819A819F
:1010F000892F99278F7080838E819F819093F8012B
:101100008093F70181E08B834BC08E819F819C018E
:10111000220F331F220F331F220F331F8C819D811B
:10112000B9010E94E343CB0101979A838983E9E2E5
:10113000F0E089818083E0E4F0E089819A81892F61
:1011400099278F7080838E819F819093F80180937F
:10115000F70181E08B8324C08E819F819C01220F47
:10116000331F8C819D81B9010E94E343CB0101971C
:101170009A838983E9E2F0E089818083E0E4F0E00A
:1011800089819A81892F99278F7080838E819F8191
:101190009093F8018093F70181E08B8301C01B825B
:1011A0008B8129960FB6F894DEBF0FBECDBFCF91CD
:1011B000DF910895DF93CF93CDB7DEB729970FB6B0
:1011C000F894DEBF0FBECDBF8D836E834F8328871B
:1011D00019828A8180688A83EBE2F0E080818F7EC9
:1011E0008083EBE2F0E08081877F8083EBE2F0E0B8
:1011F00080818B7F80838D81882319F08D81813060
:10120000D1F48A818F7B8A838A818E7F8A838D81C4
:10121000882331F4EBE2F0E080818D7F808305C08C
:10122000EBE2F0E08081826080838D818093F90120
:1012300081E089834DC08D81823051F08D81833072
:1012400039F08D81843021F08D81853009F03FC0E7
:101250008A8180648A83EBE2F0E080818D7F8083E5
:101260008D81823019F08D818330A9F41B828B81AE
:101270008C7F81608B83CE0103960E940F2089832F
:101280008D81823021F48A818E7F8A831CC08A817D
:1012900081608A8318C01C828C818C7F81608C83E2
:1012A0008C818F7980628C83CE0104960E940F20FE
:1012B00089838D81843021F48A818E7F8A8303C063
:1012C0008A8181608A838D818093F90101C01982AE
:1012D0008E8183708370982F9295907F8A818F7C06
:1012E000892B8A838F8181708170982F990F990F34
:1012F000990F8A81877F892B8A8388858370837081
:10130000982F990F8A81897F892B8A83EAE2F0E0FE
:1013100088858695869581708170982F990F990F91
:1013200080818B7F892B8083E0E4F0E08A81808359
:1013300019868981882311F081E0898789858983CD
:10134000898129960FB6F894DEBF0FBECDBFCF912D
:10135000DF910895DF93CF9300D000D0CDB7DEB7F3
:101360008A837C836B831982E0E4F0E08081EB81E7
:10137000FC8180838A81882331F4E0E4F0E080817D
:10138000EB81FC81808381E0898389810F900F90BC
:101390000F900F90CF91DF910895DF93CF9300D0FE
:1013A000CDB7DEB78A831982EAE2F0E08A818170E4
:1013B0008170982F9295990F990F907C80818F7BE7
:1013C000892B808381E0898389810F900F90CF9151
:1013D000DF910895DF93CF9300D00F92CDB7DEB7A2
:1013E0009B838A8319828A819B819093CB0180930E
:1013F000CA0181E0898389810F900F900F90CF916E
:10140000DF910895DF93CF9300D0CDB7DEB78A8305
:101410001982EAE2F0E08A818170982F97959927E6
:10142000979580818F77892B808381E0898389815B
:101430000F900F90CF91DF910895DF93CF9300D05D
:101440000F92CDB7DEB79B838A8319828A819B81F5
:101450009093CD018093CC0181E0898389810F90A5
:101460000F900F90CF91DF910895DF93CF9300D02D
:10147000CDB7DEB78A831982EAE2F0E08A81817013
:101480008170982F9295990F907E80818F7D892B06
:10149000808381E0898389810F900F90CF91DF91C4
:1014A0000895DF93CF9300D00F92CDB7DEB79B8323
:1014B0008A8319828A819B819093CF018093CE0188
:1014C00081E0898389810F900F900F90CF91DF91F8
:1014D00008951F920F920FB60F9211242F933F93EE
:1014E0004F935F936F937F938F939F93AF93BF932C
:1014F000EF93FF93DF93CF93CDB7DEB7E091CA01AF
:10150000F091CB010995EBE2F0E08081806480836B
:10151000CF91DF91FF91EF91BF91AF919F918F910B
:101520007F916F915F914F913F912F910F900FBEDF
:101530000F901F9018951F920F920FB60F921124C3
:101540002F933F934F935F936F937F938F939F93CB
:10155000AF93BF93EF93FF93DF93CF93CDB7DEB7F6
:10156000E091CC01F091CD010995CF91DF91FF91F0
:10157000EF91BF91AF919F918F917F916F915F910B
:101580004F913F912F910F900FBE0F901F90189584
:101590001F920F920FB60F9211242F933F934F93E8
:1015A0005F936F937F938F939F93AF93BF93EF93CB
:1015B000FF93DF93CF93CDB7DEB7E091CE01F091EB
:1015C000CF010995CF91DF91FF91EF91BF91AF913D
:1015D0009F918F917F916F915F914F913F912F914B
:1015E0000F900FBE0F901F901895DF93CF9300D0F0
:1015F00000D0CDB7DEB78A8319828A81282F30E0E8
:101600003C832B838B819C818130910549F12B8117
:101610003C81223031052CF48B819C81009761F054
:1016200059C02B813C812230310579F18B819C811D
:1016300083309105D1F14EC0E3E5F0E080818F7BEE
:101640008083E3E5F0E08081877F8083E3E5F0E05D
:1016500080818F7C80831092D00181E089833BC0A0
:10166000E3E5F0E0808180648083E3E5F0E0808161
:10167000877F8083E3E5F0E080818F77808381E05E
:101680008093D00181E0898326C0E3E5F0E080818A
:101690008F7B8083E3E5F0E080818860808382E057
:1016A0008093D00181E0898316C0E3E5F0E080817A
:1016B00080648083E3E5F0E0808188608083E3E5F7
:1016C000F0E080818F77808383E08093D00181E098
:1016D000898301C0198289810F900F900F900F901C
:1016E000CF91DF910895DF93CF9300D0CDB7DEB7D0
:1016F0008A831982E2E5F0E08A81808381E0898330
:1017000089810F900F90CF91DF910895DF93CF9350
:1017100000D000D000D0CDB7DEB78B836C831982A8
:101720008091D001823011F0198255C0ECE5F0E0D3
:101730008B8180838C81882361F08C81843048F494
:101740001A828A81837E8C608A83CE0102960E94EF
:101750000F208C81282F30E03E832D838D819E8148
:1017600081309105E9F02D813E81223031052CF444
:101770008D819E81009761F02DC02D813E812230A8
:101780003105B9F08D819E8183309105D9F022C059
:10179000E3E5F0E080818F7C808381E089831BC05A
:1017A000E3E5F0E080818F7C8061808381E0898344
:1017B00012C0E3E5F0E080818F7C8062808381E06D
:1017C000898309C0E3E5F0E080818063808381E064
:1017D000898301C01982898126960FB6F894DEBFED
:1017E0000FBECDBFCF91DF910895DF93CF9300D08F
:1017F00000D000D0CDB7DEB78B836C831982809187
:10180000D001833011F0198259C08C81823019F0D7
:101810008C81833049F41A828A81837E8C608A832A
:10182000CE0102960E940F208C81282F30E03E834B
:101830002D838D819E818230910589F02D813E819D
:101840002330310511F18D819E810097B1F5E3E5DB
:10185000F0E080818F7C808381E089832FC0ECE57C
:10186000F0E08B8194E6692F0E94D743882F90E0A7
:10187000982F882781508083E3E5F0E080818F7C7A
:101880008062808381E0898319C0ECE5F0E08B8180
:1018900094E6692F0E94D743282F30E081E090E042
:1018A000821B930B982F88278083E3E5F0E08081EB
:1018B0008063808381E0898301C0198289812696B3
:1018C0000FB6F894DEBF0FBECDBFCF91DF91089564
:1018D000DF93CF93CDB7DEB72E970FB6F894DEBF68
:1018E0000FBECDBF8B836C8319828091D001813074
:1018F00011F019828FC08C81823019F08C81833075
:1019000049F41A828A81837E8C608A83CE01029692
:101910000E940F208C81282F30E03A872987498543
:101920005A854230510599F089859A858330910511
:1019300009F43EC0E985FA85309709F06AC0E3E50D
:10194000F0E080818F7C808381E0898363C02CE517
:1019500030E038872F838B8194E6692F0E94D7432C
:10196000282F30E08FEF91E0AC01249FC001259F2C
:10197000900D349F900D112401979C878B878B8548
:101980009C8599232CF4EB85FC853196FC87EB87AD
:101990008B859C8595958795EF81F8858083E3E518
:1019A000F0E080818F7C8062808381E0898332C017
:1019B0002CE530E03E832D838B8194E6692F0E94D5
:1019C000D743282F30E08FEF91E0AC01249FC00176
:1019D000259F900D349F900D112401979E878D8730
:1019E0008D859E8599232CF4ED85FE853196FE87A5
:1019F000ED878D859E85959587958095ED81FE81F6
:101A00008083E3E5F0E080818063808381E08983E7
:101A100001C0198289812E960FB6F894DEBF0FBEE1
:101A2000CDBFCF91DF910895DF93CF9300D0CDB795
:101A3000DEB78A8319828A81882311F419820CC047
:101A4000E3E5F0E08A818770982F97708081887F26
:101A5000892B808381E0898389810F900F90CF91BA
:101A6000DF910895DF93CF930F92CDB7DEB7198240
:101A7000E3E5F0E08081887F808381E0898389814C
:101A80000F90CF91DF910895DF93CF930F92CDB751
:101A9000DEB719828091D001882321F08091D00196
:101AA000823041F4E3E5F0E080818068808381E06A
:101AB000898301C0198289810F90CF91DF910895A8
:101AC000DF93CF9300D0CDB7DEB78A831982E9E5E3
:101AD000F0E08A818170982F917080818E7F892BB0
:101AE000808381E0898389810F900F90CF91DF916E
:101AF0000895DF93CF9300D00F92CDB7DEB79B83CD
:101B00008A831982E8E5F0E080818170EA81FB81B7
:101B1000808381E0898389810F900F900F90CF910E
:101B2000DF910895DF93CF930F92CDB7DEB719827F
:101B3000E8E5F0E080818160808381E089838981AC
:101B40000F90CF91DF910895DF93CF9300D0CDB761
:101B5000DEB78A831982E9E5F0E08A8181708170BD
:101B6000982F990F80818D7F892B808381E08983D5
:101B700089810F900F90CF91DF910895DF93CF93DC
:101B800000D00F92CDB7DEB79B838A831982E8E538
:101B9000F0E0808186958170EA81FB81808381E01D
:101BA000898389810F900F900F90CF91DF910895D5
:101BB000DF93CF930F92CDB7DEB71982E8E5F0E05F
:101BC00080818260808381E0898389810F90CF91B9
:101BD000DF910895DF93CF9300D00F92CDB7DEB79A
:101BE0009B838A8319828A819B819093D5018093FC
:101BF000D40181E0898389810F900F900F90CF915C
:101C0000DF910895DF93CF9300D00F92CDB7DEB769
:101C10009B838A8319828A819B819093D7018093C9
:101C2000D60181E0898389810F900F900F90CF9129
:101C3000DF910895EF92FF920F931F93DF93CF935D
:101C4000CDB7DEB72E970FB6F894DEBF0FBECDBF6F
:101C50008A877C876B87198618861F821E821D8261
:101C60001C821B821A82198281E08093D30180E05A
:101C70000E94F50A8A85282F30E03E872D874D8502
:101C80005E854330510549F18D859E8584309105EF
:101C90005CF42D853E852130310589F04D855E85CA
:101CA0004230510599F02EC08D859E858430910576
:101CB000D9F02D853E8525303105E9F023C080E03F
:101CC00094E298878F8381E089871DC080E894E83B
:101CD00098878F8381E0898716C080E990ED988787
:101CE0008F8381E089870FC084E294EF98878F8388
:101CF00081E0898708C089E09DE398878F8381E030
:101D0000898701C019868985813009F07AC08B8561
:101D10009C8528EE33E0B9010E94E343CB019C018E
:101D20008F819885AC01249FC001259F900D349F21
:101D3000900D11249E838D838D819E81892F9927FB
:101D40009093D2018093D1018D819E81CC01A0E03E
:101D5000B0E0BC01CD010E94A904DC01CB01BC01B3
:101D6000CD0120E030E040E853E40E941903DC019B
:101D7000CB017C018D018091D1019091D201CC01E8
:101D8000A0E0B0E0BC01CD010E94A9049B01AC0120
:101D9000C801B7010E94C101DC01CB01BC01CD012A
:101DA0000E944900DC01CB019C838B8321E030E061
:101DB0008B819C81A901481B590BCA019C01220FF0
:101DC000331FC9019695982F882797958795821B71
:101DD000930B840F951F9A83898389810E94730BCB
:101DE00081E00E94600D8A850E94140D04C08091DC
:101DF000D3018130E1F38091D1019091D20100971C
:101E0000B1F789852E960FB6F894DEBF0FBECDBF11
:101E1000CF91DF911F910F91FF90EF900895EF9276
:101E2000FF920F931F93DF93CF93CDB7DEB72E971B
:101E30000FB6F894DEBF0FBECDBF8A877C876B8755
:101E4000198618861F821E821D821C821B821A829E
:101E5000198280E00E94F50A8A85282F30E03E87AB
:101E60002D874D855E854330510549F18D859E85D1
:101E7000843091055CF42D853E852130310589F053
:101E80004D855E854230510599F02EC08D859E8529
:101E900084309105D9F02D853E8525303105E9F056
:101EA00023C080E094E298878F8381E089871DC0FA
:101EB00080E894E898878F8381E0898716C080E95D
:101EC00090ED98878F8381E089870FC084E294EF3B
:101ED00098878F8381E0898708C089E09DE3988790
:101EE0008F8381E0898701C019868985813009F057
:101EF0006FC08B859C8528EE33E0B9010E94E343D7
:101F0000CB019C018F819885AC01249FC001259F46
:101F1000900D349F900D11249E838D838D819E8121
:101F2000892F99279093D2018093D1018D819E8131
:101F3000CC01A0E0B0E0BC01CD010E94A904DC010D
:101F4000CB01BC01CD0120E030E040E853E40E9429
:101F50001903DC01CB017C018D018091D1019091AD
:101F6000D201CC01A0E0B0E0BC01CD010E94A904E7
:101F70009B01AC01C801B7010E94C101DC01CB018A
:101F8000BC01CD010E944900DC01CB019C838B8305
:101F900021E030E08B819C81A901481B590BCA01CB
:101FA0009C01220F331FC9019695982F882797957A
:101FB0008795821B930B840F951F9A838983898150
:101FC0000E94730B81E00E94600D8A850E94140DAF
:101FD00089852E960FB6F894DEBF0FBECDBFCF9188
:101FE000DF911F910F91FF90EF9008951F920F9234
:101FF0000FB60F9211242F933F934F935F936F93DC
:102000007F938F939F93AF93BF93EF93FF93DF9350
:10201000CF93CDB7DEB78091D1019091D2010097D7
:10202000F1F08091D1019091D20101979093D2016A
:102030008093D1018091D1019091D2010097A1F4B8
:102040000E94320D8091D301813019F41092D30196
:102050000BC0E091D401F091D501099505C0E09144
:10206000D401F091D5010995CF91DF91FF91EF91C6
:10207000BF91AF919F918F917F916F915F914F91A0
:102080003F912F910F900FBE0F901F9018951F92A8
:102090000F920FB60F9211242F933F934F935F939C
:1020A0006F937F938F939F93AF93BF93EF93FF9320
:1020B000DF93CF93CDB7DEB7E091D601F091D70192
:1020C0000995CF91DF91FF91EF91BF91AF919F91D2
:1020D0008F917F916F915F914F913F912F910F90D1
:1020E0000FBE0F901F901895DF93CF9300D000D0B4
:1020F0000F92CDB7DEB78B8319828B81883031F098
:102100008B818A3019F08B818C3081F41A828A811C
:1021100083608A838A81837E88618A838A818F79BA
:1021200080628A83CE0102960E940F208B81282F25
:1021300030E03D832C838C819D818730910509F4AB
:1021400012C12C813D812830310554F58C819D814F
:102150008330910509F4A4C02C813D8124303105E0
:1021600094F48C819D818130910509F463C02C81A8
:102170003D81223031050CF078C08C819D81009723
:1021800009F43FC0C1C12C813D812530310509F4DE
:10219000B2C08C819D81863091050CF0C8C09AC078
:1021A0002C813D812B30310509F44BC18C819D81FF
:1021B0008C3091056CF42C813D812930310509F476
:1021C00008C18C819D818A3091050CF01EC1E6C04A
:1021D0002C813D812D30310509F45EC18C819D81BA
:1021E0008D3091050CF448C12C813D812E30310594
:1021F00009F454C18C819D818F30910509F469C126
:1022000083C1EFE4F0E080818C7F8083EEE4F0E036
:102210008081877E8083EFE4F0E080818F7380830C
:10222000EFE4F0E080818F7C80831092D80181E020
:1022300089836BC1EFE4F0E080818C7F81608083D3
:10224000EEE4F0E08081877E8083EFE4F0E080813F
:10225000877F8083EFE4F0E080818B7F808381E063
:102260008093D80181E0898350C1EFE4F0E0808160
:102270008C7F82608083EEE4F0E08081877E8083C3
:10228000EFE4F0E08081877F8083EFE4F0E08081FD
:102290008B7F808382E08093D80181E0898335C180
:1022A000EFE4F0E0808183608083EEE4F0E0808101
:1022B000877E8083EFE4F0E08081877F8083EFE496
:1022C000F0E080818B7F808383E08093D80181E080
:1022D00089831BC1EFE4F0E080818C7F8083EEE492
:1022E000F0E08081877E8860808384E08093D801DD
:1022F00081E089830AC1EFE4F0E080818C7F816016
:102300008083EEE4F0E08081877E88608083EFE464
:10231000F0E08081877F8083EFE4F0E080818B7F35
:10232000808385E08093D80181E08983EEC0EFE46B
:10233000F0E080818C7F82608083EEE4F0E0808139
:10234000877E88608083EFE4F0E08081877F8083F0
:10235000EFE4F0E080818B7F808386E08093D8017A
:1023600081E08983D2C0EFE4F0E0808183608083E4
:10237000EEE4F0E08081877E88608083EFE4F0E027
:102380008081877F8083EFE4F0E080818B7F808392
:1023900087E08093D80181E08983B7C0EFE4F0E063
:1023A00080818C7F8083EEE4F0E08081877E806195
:1023B0008083EFE4F0E08081877F8083EFE4F0E0CA
:1023C00080818B7F808388E08093D80181E089833E
:1023D0009CC0EFE4F0E080818C7F81608083EEE43C
:1023E000F0E08081877E80618083EFE4F0E080818F
:1023F000877F8083EFE4F0E080818B7F808389E0BA
:102400008093D80181E0898380C0EFE4F0E080818F
:102410008C7F82608083EEE4F0E08081877E806143
:102420008083EFE4F0E08081877F8083EFE4F0E059
:1024300080818B7F80838AE08093D80181E08983CB
:1024400064C0EFE4F0E0808183608083EEE4F0E03C
:102450008081877E80618083EFE4F0E08081877FE8
:102460008083EFE4F0E080818B7F80838BE080933A
:10247000D80181E0898349C0EFE4F0E080818C7F5E
:102480008083EEE4F0E08081886180838CE080933B
:10249000D80181E0898339C0198237C0EFE4F0E0C8
:1024A000808183608083EEE4F0E08081877E8061BC
:1024B0008083EFE4F0E08081877F8083EFE4F0E0C9
:1024C00080818B7F80838EE08093D80181E0898337
:1024D0001CC0EFE4F0E080818C7F82608083EEE4BA
:1024E000F0E0808188618083EFE4F0E08081877F85
:1024F0008083EFE4F0E080818B7F80838FE08093A6
:10250000D80181E0898301C0198289810F900F90E1
:102510000F900F900F90CF91DF910895DF93CF939D
:1025200000D000D0CDB7DEB79C838B8319821A828E
:10253000CE0102960E94351E80E00E94011EECE44E
:10254000F0E08B819C81918380838A810E94011EAF
:1025500081E0898389810F900F900F900F90CF9128
:10256000DF910895DF93CF93CDB7DEB72D970FB6E8
:10257000F894DEBF0FBECDBF8D836E834F8319826B
:102580001A828091D001843031F08091D0018C305A
:1025900011F01982DDC08E81282F30E03D872C8715
:1025A0008C859D85009739F02C853D85213031053E
:1025B00009F467C0CCC0CE0102960E94351E80E0AF
:1025C0000E94011EEAE4F0E08D81882F90E0918363
:1025D00080838A810E94011E8F81882379F08F81F8
:1025E000843060F41B828B8183608B838B81837E3C
:1025F00084618B83CE0103960E940F208F81282F48
:1026000030E03B872A878A859B8581309105E9F0F8
:102610002A853B85223031052CF48A859B850097DD
:1026200061F02DC02A853B8522303105B9F08A85BD
:102630009B8583309105D9F022C0EFE4F0E08081E2
:102640008F73808381E0898383C0EFE4F0E0808131
:102650008F738064808381E089837AC0EFE4F0E047
:1026600080818F738068808381E0898371C0EFE40B
:10267000F0E08081806C808381E0898369C0198269
:1026800067C0CE0102960E94351E80E00E94011EA6
:10269000E8E4F0E08D81882F90E0918380838A8147
:1026A0000E94011E8F81882379F08F81843060F42D
:1026B0001C828C8183608C838C81837E80618C837F
:1026C000CE0104960E940F208F81282F30E0398799
:1026D00028878885998581309105E9F02885398595
:1026E000223031052CF488859985009761F02DC042
:1026F0002885398522303105B9F088859985833060
:102700009105D9F022C0EFE4F0E080818F7C8083D6
:1027100081E089831DC0EFE4F0E080818F7C8061DF
:10272000808381E0898314C0EFE4F0E080818F7CB6
:102730008062808381E089830BC0EFE4F0E08081D8
:102740008063808381E0898303C0198201C019827C
:1027500089812D960FB6F894DEBF0FBECDBFCF9105
:10276000DF910895DF93CF93CDB7DEB72E970FB6E5
:10277000F894DEBF0FBECDBF9E838D836F834887E5
:1027800019821A828091D001833011F019825EC1C2
:102790008F81282F30E03E872D878D859E85813063
:1027A000910509F4A6C02D853E852230310509F436
:1027B0003BC18D859E85009709F047C18885882398
:1027C00079F08885843060F41B828B8183608B83F1
:1027D0008B81837E84618B83CE0103960E940F20C0
:1027E0008885282F30E03C872B878B859C8581301E
:1027F0009105F1F02B853C85223031052CF48B8539
:102800009C85009769F073C02B853C85223031058B
:1028100041F18B859C858330910509F444C067C0E4
:10282000EFE4F0E080818F73808381E089830EC1C3
:10283000CE0102960E94351E80E00E94011EEAE44D
:10284000F0E08D819E81918380838A810E94011EA8
:10285000EFE4F0E080818F738064808381E089837E
:10286000F5C0CE0102960E94351E80E00E94011E36
:10287000EAE4F0E08D819E8124E630E0B9010E9417
:10288000E343CB01982F88270197918380838A8126
:102890000E94011EEFE4F0E080818F7380688083E6
:1028A00081E08983D3C0CE0102960E94351E80E06C
:1028B0000E94011EEAE4F0E08D819E8124E630E072
:1028C000B9010E94E343CB01382F22278FEF90E01C
:1028D000821B930B918380838A810E94011EEFE407
:1028E000F0E08081806C808381E08983AFC01982B1
:1028F000ADC08885882379F08885843060F41C8297
:102900008C8183608C838C81837E80618C83CE01FB
:1029100004960E940F208885282F30E03A87298767
:1029200089859A8581309105F1F029853A85223093
:1029300031052CF489859A85009769F073C0298543
:102940003A852230310541F189859A858330910598
:1029500009F444C067C0EFE4F0E080818F7C80839D
:1029600081E0898373C0CE0102960E94351E80E00B
:102970000E94011EE8E4F0E08D819E8191838083B6
:102980008A810E94011EEFE4F0E080818F7C8061EB
:10299000808381E089835AC0CE0102960E94351E51
:1029A00080E00E94011EE8E4F0E08D819E8124E633
:1029B00030E0B9010E94E343CB01982F88270197AB
:1029C000918380838A810E94011EEFE4F0E0808180
:1029D0008F7C8062808381E0898338C0CE0102963B
:1029E0000E94351E80E00E94011EE8E4F0E08D8127
:1029F0009E8124E630E0B9010E94E343CB01382FE9
:102A000022278FEF90E0821B930B918380838A8132
:102A10000E94011EEFE4F0E080818063808381E00A
:102A2000898314C0198212C0CE0102960E94351EFD
:102A300080E00E94011EE6E4F0E08D819E8191839A
:102A400080838A810E94011E01C0198289812E968D
:102A50000FB6F894DEBF0FBECDBFCF91DF910895C2
:102A6000DF93CF93CDB7DEB72E970FB6F894DEBFC6
:102A70000FBECDBF9E838D836F83488719821A82D4
:102A80008091D001833011F0198291C18F81282F5C
:102A900030E03E872D874D855E854130510509F434
:102AA000C0C08D859E858230910509F46EC12D854B
:102AB0003E852115310509F079C18885882379F093
:102AC0008885843060F41B828B8183608B838B814B
:102AD000837E84618B83CE0103960E940F208885BC
:102AE000482F50E05C874B878B859C858130910512
:102AF000F9F02B853C852230310534F44B855C851B
:102B00004115510569F08BC08B859C8582309105FC
:102B100041F12B853C852330310509F44FC07FC03E
:102B2000EFE4F0E080818F73808381E089833FC18F
:102B3000CE0102960E94351E80E00E94011EEAE44A
:102B4000F0E08D819E81918380838A810E94011EA5
:102B5000EFE4F0E080818F738064808381E089837B
:102B600026C1CE0102960E94351E80E00E94011E01
:102B7000EAE4F0E08D819E8124E630E0B9010E9414
:102B8000E343CB019C018FEF91E0AC01249FC00196
:102B9000259F900D349F900D112401979695879550
:102BA000918380838A810E94011EEFE4F0E080819E
:102BB0008F738068808381E08983F9C0CE0102969B
:102BC0000E94351E80E00E94011EEAE4F0E08D8143
:102BD0009E8124E630E0B9010E94E343CB019C01D1
:102BE0008FEF91E0AC01249FC001259F900D349F91
:102BF000900D112401979C01369527958FEF90E059
:102C0000821B930B918380838A810E94011EEFE4D3
:102C1000F0E08081806C808381E08983C8C0198264
:102C2000C6C08885882379F08885843060F41C824A
:102C30008C8183608C838C81837E80618C83CE01C8
:102C400004960E940F208885282F30E03A87298734
:102C500049855A8541305105F9F089859A85823038
:102C6000910534F429853A852115310569F08BC029
:102C700049855A854230510541F189859A858330CD
:102C8000910509F44FC07FC0EFE4F0E080818F7CB4
:102C9000808381E089838BC0CE0102960E94351E1D
:102CA00080E00E94011EE8E4F0E08D819E81918326
:102CB00080838A810E94011EEFE4F0E080818F7C96
:102CC0008061808381E0898372C0CE0102960E9478
:102CD000351E80E00E94011EE8E4F0E08D819E81B7
:102CE00024E630E0B9010E94E343CB019C018FEF61
:102CF00091E0AC01249FC001259F900D349F900D61
:102D00001124019796958795918380838A810E94EB
:102D1000011EEFE4F0E080818F7C8062808381E09F
:102D2000898345C0CE0102960E94351E80E00E9434
:102D3000011EE8E4F0E08D819E8124E630E0B901D7
:102D40000E94E343CB019C018FEF91E0AC01249FF3
:102D5000C001259F900D349F900D112401979C0177
:102D6000369527958FEF90E0821B930B918380839C
:102D70008A810E94011EEFE4F0E0808180638083FD
:102D800081E0898314C0198212C0CE0102960E948C
:102D9000351E80E00E94011EE6E4F0E08D819E81F8
:102DA000918380838A810E94011E01C019828981DA
:102DB0002E960FB6F894DEBF0FBECDBFCF91DF9138
:102DC0000895DF93CF9300D00F92CDB7DEB78A83FB
:102DD0006B8319828A81882319F08A81813079F482
:102DE000EEE4F0E08A8181708170982F9295990FBE
:102DF000990F907C80818F7B892B808301C0198201
:102E00008B81882319F08B81813069F4EEE4F0E046
:102E10008B818170982F97959927979580818F77CF
:102E2000892B808301C0198281E0898389810F9079
:102E30000F900F90CF91DF910895DF93CF9300D043
:102E4000CDB7DEB78A8319828A81882311F419826B
:102E50000CC0EEE4F0E08A818770982F9770808133
:102E6000887F892B808381E0898389810F900F90EF
:102E7000CF91DF910895DF93CF930F92CDB7DEB757
:102E80001982EEE4F0E08081887F808381E089838D
:102E900089810F90CF91DF910895DF93CF9300D078
:102EA00000D0CDB7DEB78A8319828091D8018823FC
:102EB00041F08091D801843021F08091D8018C308C
:102EC00009F58A81282F30E03C832B838B819C81FC
:102ED000009731F02B813C812130310549F010C041
:102EE000EFE4F0E080818860808381E089830BC01B
:102EF000EFE4F0E080818460808381E0898303C017
:102F0000198201C0198289810F900F900F900F9044
:102F1000CF91DF910895DF93CF9300D0CDB7DEB787
:102F20008A831982E9E5F0E08A8181708170982FA7
:102F3000990F990F80818B7F892B808381E0898312
:102F400089810F900F90CF91DF910895DF93CF93F8
:102F500000D00F92CDB7DEB79B838A831982E8E554
:102F6000F0E08081869586958170EA81FB8180837F
:102F700081E0898389810F900F900F90CF91DF912D
:102F80000895DF93CF930F92CDB7DEB71982E8E5AE
:102F9000F0E080818460808381E0898389810F9063
:102FA000CF91DF910895DF93CF9300D000D00F929F
:102FB000CDB7DEB78A836B8319828A81282F30E0F0
:102FC0003D832C838C819D8181309105C1F02C81C2
:102FD0003D812230310519F18C819D81009779F571
:102FE000E9E5F0E08B8181708170982F9295907F58
:102FF00080818F7E892B808381E0898321C0E9E5F0
:10300000F0E08B8181708170982F990F990F990F43
:103010008081877F892B808381E0898311C0E9E5E6
:10302000F0E08B8181708170982F9295990F907E3E
:1030300080818F7D892B808381E0898301C0198203
:1030400089810F900F900F900F900F90CF91DF918B
:103050000895DF93CF9300D000D000D0CDB7DEB776
:103060008A837C836B8319828A81282F30E03E8398
:103070002D838D819E8181309105A9F02D813E8126
:1030800022303105E9F08D819E81009731F5E8E528
:10309000F0E0808182958F708170EB81FC8180836C
:1030A00081E089831BC0E8E5F0E080818695869504
:1030B00086958170EB81FC81808381E089830EC0DD
:1030C000E8E5F0E080818295869587708170EB81DC
:1030D000FC81808381E0898301C0198289812696E1
:1030E0000FB6F894DEBF0FBECDBFCF91DF9108952C
:1030F000DF93CF9300D000D0CDB7DEB78A8319829B
:103100008A81282F30E03C832B838B819C81813006
:10311000910589F02B813C8122303105A1F08B8112
:103120009C810097C1F4E8E5F0E0808180618083B4
:1031300081E0898311C0E8E5F0E0808188608083C8
:1031400081E0898309C0E8E5F0E0808180628083C6
:1031500081E0898301C0198289810F900F900F90BF
:103160000F90CF91DF910895DF93CF9300D00F920E
:10317000CDB7DEB79B838A8319828A819B81909326
:10318000DD018093DC0181E0898389810F900F90BC
:103190000F90CF91DF910895DF93CF9300D00F92DE
:1031A000CDB7DEB79B838A8319828A819B819093F6
:1031B000DF018093DE0181E0898389810F900F9088
:1031C0000F90CF91DF910895DF93CF9300D00F92AE
:1031D000CDB7DEB79B838A8319828A819B819093C6
:1031E000E1018093E00181E0898389810F900F9054
:1031F0000F90CF91DF910895DF93CF9300D00F927E
:10320000CDB7DEB79B838A8319828A819B81909395
:10321000E3018093E20181E0898389810F900F901F
:103220000F90CF91DF910895EF92FF920F931F932C
:10323000DF93CF93CDB7DEB72E970FB6F894DEBFEE
:103240000FBECDBF8A877C876B87198618861F8241
:103250001E821D821C821B821A82198281E0809349
:10326000DB0180E00E9474108A85282F30E03E87C1
:103270002D874D855E854330510549F18D859E85AD
:10328000843091055CF42D853E852130310589F02F
:103290004D855E854230510599F02EC08D859E8505
:1032A00084309105D9F02D853E8525303105E9F032
:1032B00023C080E094E298878F8381E089871DC0D6
:1032C00080E894E898878F8381E0898716C080E939
:1032D00090ED98878F8381E089870FC084E294EF17
:1032E00098878F8381E0898708C089E09DE398876C
:1032F0008F8381E0898701C019868985813009F033
:1033000081C08B859C8528EE33E0B9010E94E343A0
:10331000CB019C018F819885AC01249FC001259F22
:10332000900D349F900D11249E838D838D819E81FD
:10333000CC01A0E0B0E020E030E041E050E0BC0192
:10334000CD010E940A44DA01C9019093DA01809309
:10335000D9018D819E81CC01A0E0B0E0BC01CD01FE
:103360000E94A904DC01CB01BC01CD0120E030E0CA
:1033700040E857E40E941903DC01CB017C018D0178
:103380008091D9019091DA01CC01A0E0B0E0BC01BC
:10339000CD010E94A9049B01AC01C801B7010E94A4
:1033A000C101DC01CB01BC01CD010E944900DC015F
:1033B000CB019C838B838B819C81CC01A0E0B0E00E
:1033C00021E030E04FEF5FEFBC01CD010E94B84338
:1033D000DC01CB0101979A83898389819A810E94BC
:1033E0008E1281E00E948B178A850E941D1704C0EF
:1033F0008091DB018130E1F38091D9019091DA0174
:103400000097B1F789852E960FB6F894DEBF0FBEF0
:10341000CDBFCF91DF911F910F91FF90EF90089555
:10342000EF92FF920F931F93DF93CF93CDB7DEB749
:103430002E970FB6F894DEBF0FBECDBF8A877C876C
:103440006B87198618861F821E821D821C821B8232
:103450001A82198280E00E9474108A85282F30E039
:103460003E872D874D855E854330510549F18D8519
:103470009E85843091055CF42D853E852130310593
:1034800089F04D855E854230510599F02EC08D85BD
:103490009E8584309105D9F02D853E8525303105F6
:1034A000E9F023C080E094E298878F8381E08987E8
:1034B0001DC080E894E898878F8381E0898716C0D3
:1034C00080E990ED98878F8381E089870FC084E23F
:1034D00094EF98878F8381E0898708C089E09DE316
:1034E00098878F8381E0898701C01986898581301B
:1034F00009F076C08B859C8528EE33E0B9010E94E7
:10350000E343CB019C018F819885AC01249FC001CE
:10351000259F900D349F900D11249E838D838D8166
:103520009E81CC01A0E0B0E020E030E041E050E03E
:10353000BC01CD010E940A44DA01C9019093DA016D
:103540008093D9018D819E81CC01A0E0B0E0BC01C7
:10355000CD010E94A904DC01CB01BC01CD0120E01A
:1035600030E040E857E40E941903DC01CB017C0104
:103570008D018091D9019091DA01CC01A0E0B0E0F9
:10358000BC01CD010E94A9049B01AC01C801B70197
:103590000E94C101DC01CB01BC01CD010E944900A8
:1035A000DC01CB019C838B838B819C81CC01A0E0CF
:1035B000B0E021E030E04FEF5FEFBC01CD010E94B1
:1035C000B843DC01CB0101979A83898389819A8171
:1035D0000E948E1281E00E948B178A850E941D171F
:1035E00089852E960FB6F894DEBF0FBECDBFCF9162
:1035F000DF911F910F91FF90EF9008951F920F920E
:103600000FB60F9211242F933F934F935F936F93B5
:103610007F938F939F93AF93BF93EF93FF93DF932A
:10362000CF93CDB7DEB78091D9019091DA010097A1
:10363000F1F08091D9019091DA0101979093DA012C
:103640008093D9018091D9019091DA010097A1F47A
:103650000E94320D8091DB01813019F41092DB0160
:103660000BC0E091DC01F091DD01099505C0E0910E
:10367000DC01F091DD010995CF91DF91FF91EF9190
:10368000BF91AF919F918F917F916F915F914F917A
:103690003F912F910F900FBE0F901F9018951F9282
:1036A0000F920FB60F9211242F933F934F935F9376
:1036B0006F937F938F939F93AF93BF93EF93FF93FA
:1036C000DF93CF93CDB7DEB7E091DE01F091DF015C
:1036D0000995CF91DF91FF91EF91BF91AF919F91AC
:1036E0008F917F916F915F914F913F912F910F90AB
:1036F0000FBE0F901F9018951F920F920FB60F924A
:1037000011242F933F934F935F936F937F938F93E6
:103710009F93AF93BF93EF93FF93DF93CF93CDB777
:10372000DEB7E091E001F091E1010995CF91DF91E1
:10373000FF91EF91BF91AF919F918F917F916F9189
:103740005F914F913F912F910F900FBE0F901F905F
:1037500018951F920F920FB60F9211242F933F933B
:103760004F935F936F937F938F939F93AF93BF9389
:10377000EF93FF93DF93CF93CDB7DEB7E091E201F4
:10378000F091E3010995CF91DF91FF91EF91BF9106
:10379000AF919F918F917F916F915F914F913F91E9
:1037A0002F910F900FBE0F901F9018950F93DF93DE
:1037B000CF9300D000D000D0CDB7DEB78A836B8323
:1037C0004C832D830E8319828A81882331F4EDE2A4
:1037D000F0E080818F7B808342C0EDE2F0E0808169
:1037E00080648083EDE2F0E08D8181708170982F9C
:1037F000990F990F990F8081877F892B8083EDE244
:10380000F0E08C8181708170982F990F990F8081E1
:103810008B7F892B8083EDE2F0E08E818170817057
:10382000982F9295990F907E80818F7D892B808330
:103830008B81853019F08B81863021F481E00E94E4
:103840008F1D03C080E00E948F1DEDE2F0E08B81B0
:103850008370982F937080818C7F892B80838981DE
:1038600026960FB6F894DEBF0FBECDBFCF91DF9185
:103870000F910895DF93CF9300D00F92CDB7DEB7AD
:103880008B831982EDE2F0E08B8181708170982F3B
:103890009295907F80818F7E892B80831A828A8186
:1038A0008C7F81608A838B81813091F58A818C61E4
:1038B0008A838A818F798A83CE0102960E940F20A3
:1038C0008A81837E84618A838A818F798A83CE010B
:1038D00002960E940F208A81837E88618A838A8172
:1038E0008F7980628A83CE0102960E940F208A819E
:1038F000837E80618A838A818F798A83CE01029652
:103900000E940F20CE01029661E00E94DC2331C0AC
:103910008B81882371F58A818C618A838A818F7972
:1039200080628A83CE0102960E940F208A81837E64
:1039300084618A838A818F7980628A83CE0102962C
:103940000E940F208A81837E88618A838A818F7991
:103950008A83CE0102960E940F208A81837E806135
:103960008A838A818F7980628A83CE0102960E943F
:103970000F2081E0898389810F900F900F90CF9164
:10398000DF910895DF93CF9300D00F92CDB7DEB7CC
:103990009B838A831982EA81FB8180818F7980836E
:1039A0008A819B810E940F208A819B8161E00E9415
:1039B000DC2381E0898389810F900F900F90CF9154
:1039C000DF910895DF93CF9300D00F92CDB7DEB78C
:1039D0009B838A8319828A819B8160E00E94DC2319
:1039E00081E0898389810F900F900F90CF91DF91B3
:1039F0000895DF93CF9300D00F92CDB7DEB79B83AE
:103A00008A8319828A819B8161E00E94DC2381E0A4
:103A1000898389810F900F900F90CF91DF91089546
:103A2000DF93CF9300D0CDB7DEB78A8319828A8126
:103A30000E94471D898389810F900F90CF91DF915C
:103A40000895DF93CF9300D0CDB7DEB78A83198274
:103A50008A810E94471D898389810F900F90CF91A1
:103A6000DF910895DF93CF9300D00F92CDB7DEB7EB
:103A70009B838A8319828A819B810E945A1D898334
:103A800089810F900F900F90CF91DF910895DF9370
:103A9000CF9300D0CDB7DEB78A831982EFE2F0E092
:103AA0008A81808381E0898389810F900F90CF91F3
:103AB000DF910895DF93CF9300D00F92CDB7DEB79B
:103AC0009B838A831982EFE2F0E08081EA81FB81A7
:103AD000808381E0898389810F900F900F90CF912F
:103AE000DF910895DF93CF9300D00F92CDB7DEB76B
:103AF0009B838A831982EEE2F0E08081829586952D
:103B0000869583708170EA81FB81808381E089835F
:103B100089810F900F900F90CF91DF910895DF93DF
:103B2000CF9300D0CDB7DEB78A831982EEE2F0E002
:103B30008A818170982F917080818E7F892B8083FC
:103B400081E0898389810F900F90CF91DF91089553
:103B5000DF93CF9300D0CDB7DEB78A831982EDE231
:103B6000F0E08A818170982F9795992797958081A9
:103B70008F77892B808381E0898389810F900F90D3
:103B8000CF91DF910895DF93CF9300D0CDB7DEB70B
:103B90001A82EEE2F0E08081898381E08A838A8163
:103BA0000F900F90CF91DF910895DF93CF9300D0C6
:103BB0000F92CDB7DEB79B838A8319828A819B815E
:103BC0009093E5018093E40189810F900F900F900D
:103BD000CF91DF910895DF93CF9300D000D0CDB780
:103BE000DEB79A838983E091E401F091E5010995BC
:103BF0000E94C31D0F900F900F900F90CF91DF91F7
:103C00000895DF93CF9300D000D0CDB7DEB78A837D
:103C100019828A81282F30E03C832B838B819C8101
:103C2000009731F02B813C812130310559F014C0CF
:103C3000AFE5B0E0EFE5F0E080818F778C9381E035
:103C400089830BC0AFE5B0E0EFE5F0E080818068EC
:103C50008C9381E0898301C0198289810F900F9034
:103C60000F900F90CF91DF910895DF93CF9300D005
:103C70000F92CDB7DEB79B838A831982EFE5F0E020
:103C80008081881F8827881FEA81FB81808381E0EB
:103C9000898389810F900F900F90CF91DF910895C4
:103CA000DF93CF9300D000D000D0CDB7DEB79B8399
:103CB0008A836C8319828C818823B9F4ABE5B0E0E8
:103CC000EBE5F0E08081482F8A81282F30E081E009
:103CD00090E0022E02C0880F991F0A94E2F78095A7
:103CE00084238C9381E0898372C08C81813009F0B8
:103CF0006EC08A81282F30E03E832D838D819E8186
:103D00008630910559F02D813E8127303105F1F043
:103D10008D819E818530910599F158C0E5E5F0E0EF
:103D20008B818370982F937080818C7F892B808307
:103D30008A819B810E941B1FABE5B0E0EBE5F0E0C0
:103D4000808180648C9381E0898341C0E5E5F0E067
:103D50008B8183708370982F990F990F8081837F57
:103D6000892B80838A819B810E941B1FABE5B0E079
:103D7000EBE5F0E0808180688C9381E0898327C047
:103D80008B81882319F48B818130F1F0E4E5F0E038
:103D90008B818170817081708170982F9295990FBD
:103DA000990F907C80818F7B892B80838A819B8176
:103DB0000E941B1FABE5B0E0EBE5F0E08081806284
:103DC0008C9381E0898303C0198201C019828981A3
:103DD00026960FB6F894DEBF0FBECDBFCF91DF9110
:103DE0000895DF93CF9300D000D00F92CDB7DEB708
:103DF0009B838A837D836C831982EAE5F0E080816E
:103E0000282F30E08A81882F90E0A90102C05595C3
:103E100047958A95E2F7CA018170EC81FD81808324
:103E200081E0898389810F900F900F900F900F9000
:103E3000CF91DF910895DF93CF9300D00F92CDB74C
:103E4000DEB79B838A831982AAE5B0E0EAE5F0E059
:103E50008081482F8A81282F30E081E090E0022E77
:103E600002C0880F991F0A94E2F7842B8C9381E09B
:103E7000898389810F900F900F90CF91DF910895E2
:103E8000DF93CF9300D00F92CDB7DEB79B838A83A9
:103E900019828A819B819093E7018093E60181E0FA
:103EA000898389810F900F900F90CF91DF910895B2
:103EB000DF93CF9300D00F92CDB7DEB79B838A8379
:103EC00019828A819B819093E9018093E80181E0C6
:103ED000898389810F900F900F90CF91DF91089582
:103EE000DF93CF9300D00F92CDB7DEB79B838A8349
:103EF00019828A819B819093EB018093EA0181E092
:103F0000898389810F900F900F90CF91DF91089551
:103F10001F920F920FB60F9211242F933F934F933E
:103F20005F936F937F938F939F93AF93BF93EF9321
:103F3000FF93DF93CF93CDB7DEB7E091E601F09129
:103F4000E7010995CF91DF91FF91EF91BF91AF917B
:103F50009F918F917F916F915F914F913F912F91A1
:103F60000F900FBE0F901F9018951F920F920FB6D3
:103F70000F9211242F933F934F935F936F937F93EF
:103F80008F939F93AF93BF93EF93FF93DF93CF9361
:103F9000CDB7DEB7E091E801F091E9010995CF9145
:103FA000DF91FF91EF91BF91AF919F918F917F91A1
:103FB0006F915F914F913F912F910F900FBE0F9096
:103FC0001F9018951F920F920FB60F9211242F93E6
:103FD0003F934F935F936F937F938F939F93AF9391
:103FE000BF93EF93FF93DF93CF93CDB7DEB7E0910D
:103FF000EA01F091EB010995CF91DF91FF91EF91EB
:10400000BF91AF919F918F917F916F915F914F91F0
:104010003F912F910F900FBE0F901F901895DF9337
:10402000CF93CDB7DEB72D970FB6F894DEBF0FBE96
:10403000CDBF9B838A831982EA81FB81808186952B
:1040400086958770882F90E08830910514F019824A
:10405000C6C2EA81FB8180818370282F30E03D87D2
:104060002C878C859D858130910509F4BFC02C85F6
:104070003D85223031052CF48C859D85009771F0AB
:10408000ADC22C853D852230310509F457C18C85A0
:104090009D858330910509F4F9C1A0C281E089832F
:1040A000EA81FB8180818295869587708370282FB5
:1040B00030E03B872A878A859B858130910521F1F5
:1040C0002A853B852230310509F456C08A859B85B7
:1040D000009709F089C0AAE3B0E0EAE3F0E080814C
:1040E000482FEA81FB818081869586958770282FED
:1040F00030E081E090E0022E02C0880F991F0A9400
:10410000E2F7842B8C936BC2AAE3B0E0EAE3F0E021
:104110008081482FEA81FB81808186958695877012
:10412000282F30E081E090E002C0880F991F2A9587
:10413000E2F7809584238C93ABE3B0E0EBE3F0E00F
:104140008081482FEA81FB818081869586958770E2
:10415000282F30E081E090E0022E02C0880F991FE6
:104160000A94E2F7842B8C93A0E5B0E0E0E5F0E060
:10417000808184608C9333C2AAE3B0E0EAE3F0E08C
:104180008081482FEA81FB818081869586958770A2
:10419000282F30E081E090E002C0880F991F2A9517
:1041A000E2F7809584238C93ABE3B0E0EBE3F0E09F
:1041B0008081482FEA81FB81808186958695877072
:1041C000282F30E081E090E0022E02C0880F991F76
:1041D0000A94E2F7842B8C93A0E5B0E0E0E5F0E0F0
:1041E00080818B7F8C93FBC11982F9C181E0898327
:1041F000EA81FB8180818295869587708370282F64
:1042000030E039872887888599858130910521F1AB
:10421000288539852230310509F456C0888599856D
:10422000009709F089C0A7E3B0E0E7E3F0E0808100
:10423000482FEA81FB818081869586958770282F9B
:1042400030E081E090E0022E02C0880F991F0A94AE
:10425000E2F7842B8C93C3C1A7E3B0E0E7E3F0E07F
:104260008081482FEA81FB818081869586958770C1
:10427000282F30E081E090E002C0880F991F2A9536
:10428000E2F7809584238C93A8E3B0E0E8E3F0E0C4
:104290008081482FEA81FB81808186958695877091
:1042A000282F30E081E090E0022E02C0880F991F95
:1042B0000A94E2F7842B8C93A0E5B0E0E0E5F0E00F
:1042C000808184608C938BC1A7E3B0E0E7E3F0E0EA
:1042D0008081482FEA81FB81808186958695877051
:1042E000282F30E081E090E002C0880F991F2A95C6
:1042F000E2F7809584238C93A8E3B0E0E8E3F0E054
:104300008081482FEA81FB81808186958695877020
:10431000282F30E081E090E0022E02C0880F991F24
:104320000A94E2F7842B8C93A0E5B0E0E0E5F0E09E
:1043300080818B7F8C9353C1198251C181E0898325
:10434000EA81FB8180818295869587708370282F12
:1043500030E03F832E838E819F818130910521F152
:104360002E813F812230310509F456C08E819F8114
:10437000009709F089C0A4E3B0E0E4E3F0E08081B5
:10438000482FEA81FB818081869586958770282F4A
:1043900030E081E090E0022E02C0880F991F0A945D
:1043A000E2F7842B8C931BC1A4E3B0E0E4E3F0E0DC
:1043B0008081482FEA81FB81808186958695877070
:1043C000282F30E081E090E002C0880F991F2A95E5
:1043D000E2F7809584238C93A5E3B0E0E5E3F0E079
:1043E0008081482FEA81FB81808186958695877040
:1043F000282F30E081E090E0022E02C0880F991F44
:104400000A94E2F7842B8C93A0E5B0E0E0E5F0E0BD
:10441000808184608C93E3C0A4E3B0E0E4E3F0E047
:104420008081482FEA81FB818081869586958770FF
:10443000282F30E081E090E002C0880F991F2A9574
:10444000E2F7809584238C93A5E3B0E0E5E3F0E008
:104450008081482FEA81FB818081869586958770CF
:10446000282F30E081E090E0022E02C0880F991FD3
:104470000A94E2F7842B8C93A0E5B0E0E0E5F0E04D
:1044800080818B7F8C93ABC01982A9C081E0898326
:10449000EA81FB8180818295869587708370282FC1
:1044A00030E03D832C838C819D818130910521F109
:1044B0002C813D812230310509F456C08C819D81CB
:1044C000009709F089C0A1E3B0E0E1E3F0E080816A
:1044D000482FEA81FB818081869586958770282FF9
:1044E00030E081E090E0022E02C0880F991F0A940C
:1044F000E2F7842B8C9373C0A1E3B0E0E1E3F0E03A
:104500008081482FEA81FB8180818695869587701E
:10451000282F30E081E090E002C0880F991F2A9593
:10452000E2F7809584238C93A2E3B0E0E2E3F0E02D
:104530008081482FEA81FB818081869586958770EE
:10454000282F30E081E090E0022E02C0880F991FF2
:104550000A94E2F7842B8C93A0E5B0E0E0E5F0E06C
:10456000808184608C933BC0A4E3B0E0E4E3F0E09E
:104570008081482FEA81FB818081869586958770AE
:10458000282F30E081E090E002C0880F991F2A9523
:10459000E2F7809584238C93A5E3B0E0E5E3F0E0B7
:1045A0008081482FEA81FB8180818695869587707E
:1045B000282F30E081E090E0022E02C0880F991F82
:1045C0000A94E2F7842B8C93A0E5B0E0E0E5F0E0FC
:1045D00080818B7F8C9303C0198201C019828981ED
:1045E0002D960FB6F894DEBF0FBECDBFCF91DF91F1
:1045F0000895DF93CF93CDB7DEB728970FB6F89421
:10460000DEBF0FBECDBF9C838B837E836D831A82FA
:1046100086E08983EB81FC81808186958695877011
:10462000882F90E08830910514F01A82BBC0EB818E
:10463000FC8180818370282F30E038872F834F8161
:1046400058854130510509F43DC08F8198858230ED
:10465000910534F42F8138852115310571F0A1C001
:104660004F8158854230510509F451C08F8198859A
:104670008330910509F470C094C0EAE3F0E08081D2
:10468000282F30E0EB81FC818081869586958770AC
:10469000882F90E0A90102C0559547958A95E2F7C9
:1046A000CA01817089838981813019F089818823C9
:1046B00039F4ED81FE818981808381E08A8372C033
:1046C0001A8270C0E7E3F0E08081282F30E0EB81B0
:1046D000FC818081869586958770882F90E0A9015E
:1046E00002C0559547958A95E2F7CA018170898382
:1046F0008981813019F08981882339F4ED81FE8127
:104700008981808381E08A834DC01A824BC0E4E3B3
:10471000F0E08081282F30E0EB81FC81808186955C
:1047200086958770882F90E0A90102C0559547951E
:104730008A95E2F7CA01817089838981813019F0F5
:104740008981882339F4ED81FE818981808381E02C
:104750008A8328C01A8226C0E1E3F0E08081282FF6
:1047600030E0EB81FC818081869586958770882F6B
:1047700090E0A90102C0559547958A95E2F7CA01D4
:10478000817089838981813019F08981882339F486
:10479000ED81FE818981808381E08A8303C01A8252
:1047A00001C01A828A8128960FB6F894DEBF0FBE28
:1047B000CDBFCF91DF910895DF93CF93CDB7DEB713
:1047C0002E970FB6F894DEBF0FBECDBF9B838A83B2
:1047D0006C831982EA81FB8180818695869587703A
:1047E000882F90E08830910534F4EA81FB81808144
:1047F0008076803211F419829EC1EA81FB8180812A
:104800008370282F30E03E872D878D859E858130EF
:10481000910509F475C02D853E85223031052CF4B3
:104820008D859E85009771F085C12D853E8522304E
:10483000310509F4C3C08D859E858330910509F447
:104840001BC178C181E089838C81282F30E03C87AF
:104850002B878B859C85009759F12B853C852130D2
:10486000310509F04BC0ABE3B0E0EBE3F0E0808151
:10487000482FEA81FB818081869586958770282F55
:1048800030E081E090E0022E02C0880F991F0A9468
:10489000E2F7842B8C938C818170EA81FB81982FC5
:1048A00097959927979580818F77892B808343C12E
:1048B000ABE3B0E0EBE3F0E08081482FEA81FB81DD
:1048C0008081869586958770282F30E081E090E082
:1048D000022E02C0880F991F0A94E2F78095842364
:1048E0008C938C818170EA81FB81982F9795992711
:1048F000979580818F77892B80831DC119821BC179
:1049000081E089838C81282F30E03A872987898547
:104910009A85009759F129853A852130310509F0AA
:104920004BC0A8E3B0E0E8E3F0E08081482FEA81E3
:10493000FB818081869586958770282F30E081E005
:1049400090E0022E02C0880F991F0A94E2F7842B90
:104950008C938C818170EA81FB81982F97959927A0
:10496000979580818F77892B8083E5C0A8E3B0E09D
:10497000E8E3F0E08081482FEA81FB818081869521
:1049800086958770282F30E081E090E0022E02C0EB
:10499000880F991F0A94E2F7809584238C938C8169
:1049A0008170EA81FB81982F97959927979580814F
:1049B0008F77892B8083BFC01982BDC081E0898336
:1049C0008C81282F30E038872F838F81988500973E
:1049D00059F12F8138852130310509F04BC0A5E30D
:1049E000B0E0E5E3F0E08081482FEA81FB8180813F
:1049F000869586958770282F30E081E090E0022E22
:104A000002C0880F991F0A94E2F7842B8C938C8143
:104A10008170EA81FB81982F9795992797958081DE
:104A20008F77892B808387C0A5E3B0E0E5E3F0E0D2
:104A30008081482FEA81FB818081869586958770E9
:104A4000282F30E081E090E0022E02C0880F991FED
:104A50000A94E2F7809584238C938C818170EA819B
:104A6000FB81982F97959927979580818F77892B30
:104A7000808361C019825FC081E089838C81282F87
:104A800030E03E832D838D819E81009759F12D81E9
:104A90003E812130310509F04BC0A2E3B0E0E2E3F2
:104AA000F0E08081482FEA81FB81808186958695A0
:104AB0008770282F30E081E090E0022E02C0880F3E
:104AC000991F0A94E2F7842B8C938C818170EA8180
:104AD000FB81982F97959927979580818F77892BC0
:104AE000808329C0A2E3B0E0E2E3F0E08081482FB8
:104AF000EA81FB818081869586958770282F30E03A
:104B000081E090E0022E02C0880F991F0A94E2F71C
:104B1000809584238C938C818170EA81FB81982F0E
:104B200097959927979580818F77892B808303C0EC
:104B3000198201C0198289812E960FB6F894DEBFC2
:104B40000FBECDBFCF91DF910895DF93CF93CDB747
:104B5000DEB728970FB6F894DEBF0FBECDBF9C839B
:104B60008B837E836D831A8286E08983EB81FC814F
:104B70008081869586958770882F90E08830910592
:104B800034F4EB81FC8180818076882311F41A82D1
:104B9000BBC0EB81FC8180818370282F30E0388797
:104BA0002F834F8158854130510509F43DC08F81D5
:104BB00098858230910534F42F813885211531058F
:104BC00071F0A1C04F8158854230510509F451C0A0
:104BD0008F8198858330910509F470C094C0E9E312
:104BE000F0E08081282F30E0EB81FC818081869588
:104BF00086958770882F90E0A90102C0559547954A
:104C00008A95E2F7CA01817089838981813019F020
:104C10008981882339F4ED81FE818981808381E057
:104C20008A8372C01A8270C0E6E3F0E08081282F88
:104C300030E0EB81FC818081869586958770882F96
:104C400090E0A90102C0559547958A95E2F7CA01FF
:104C5000817089838981813019F08981882339F4B1
:104C6000ED81FE818981808381E08A834DC01A8233
:104C70004BC0E3E3F0E08081282F30E0EB81FC8142
:104C80008081869586958770882F90E0A90102C063
:104C9000559547958A95E2F7CA0181708983898184
:104CA000813019F08981882339F4ED81FE81898171
:104CB000808381E08A8328C01A8226C0E0E3F0E086
:104CC0008081282F30E0EB81FC818081869586955C
:104CD0008770882F90E0A90102C0559547958A9565
:104CE000E2F7CA01817089838981813019F0898155
:104CF000882339F4ED81FE818981808381E08A8374
:104D000003C01A8201C01A828A8128960FB6F894CD
:104D1000DEBF0FBECDBFCF91DF910895DF93CF935C
:104D200000D000D00F92CDB7DEB79B838A83198263
:104D3000EA81FB818081869586958770882F90E037
:104D40008830910534F4EA81FB818081807680325D
:104D500011F41982DAC0EA81FB8180818370282FE7
:104D600030E03D832C838C819D818130910509F455
:104D700044C02C813D81223031052CF48C819D81F1
:104D8000009771F0C1C02C813D812230310509F4BA
:104D900061C08C819D818330910509F488C0B4C0C5
:104DA000ABE3B0E0EBE3F0E08081482FEA81FB81E8
:104DB0008081869586958770282F30E081E090E08D
:104DC000022E02C0880F991F0A94E2F784278C9361
:104DD000EA81FB818081881F8827881F80958170E8
:104DE000EA81FB81982F97959927979580818F77F6
:104DF000892B808381E0898388C0A8E3B0E0E8E361
:104E0000F0E08081482FEA81FB818081869586953C
:104E10008770282F30E081E090E0022E02C0880FDA
:104E2000991F0A94E2F784278C93EA81FB818081A1
:104E3000881F8827881F80958170EA81FB81982FC1
:104E400097959927979580818F77892B808381E02B
:104E500089835BC0A5E3B0E0E5E3F0E08081482F03
:104E6000EA81FB818081869586958770282F30E0C6
:104E700081E090E0022E02C0880F991F0A94E2F7A9
:104E800084278C93EA81FB818081881F8827881F73
:104E900080958170EA81FB81982F97959927979546
:104EA00080818F77892B808381E089832EC0A2E364
:104EB000B0E0E2E3F0E08081482FEA81FB8180816D
:104EC000869586958770282F30E081E090E0022E4D
:104ED00002C0880F991F0A94E2F784278C93EA8115
:104EE000FB818081881F8827881F80958170EA81D7
:104EF000FB81982F97959927979580818F77892B9C
:104F0000808381E0898301C0198289810F900F908D
:104F10000F900F900F90CF91DF910895DF93CF9373
:104F200000D00F92CDB7DEB79B838A831982EA81C6
:104F3000FB818081869586958770882F90E08830E8
:104F4000910534F4EA81FB8180818076803211F40E
:104F5000198209C08A819B810E940F208A819B81CE
:104F600060E00E94DC2389810F900F900F90CF9119
:104F7000DF910895DF93CF9300D000D00F92CDB78B
:104F8000DEB79B838A831982EA81FB8180818770E7
:104F9000882F90E08530910514F0198247C0EA818E
:104FA000FB8180818770282F30E03D832C838C81AA
:104FB0009D8181309105F1F02C813D8122303105B8
:104FC0002CF48C819D81009761F02FC02C813D8154
:104FD00022303105C1F08C819D8183309105E1F053
:104FE00024C0AAE3B0E0EA81FB8182818C9381E056
:104FF00089831CC0A7E3B0E0EA81FB8182818C93A6
:1050000081E0898313C0A4E3B0E0EA81FB8182815F
:105010008C9381E089830AC0A1E3B0E0EA81FB813F
:1050200082818C9381E0898301C0198289810F90EC
:105030000F900F900F900F90CF91DF910895DF9315
:10504000CF93CDB7DEB727970FB6F894DEBF0FBE6C
:10505000CDBF9B838A837D836C831982EA81FB8128
:1050600080818770882F90E08530910514F0198237
:1050700047C0EA81FB8180818770282F30E03F8321
:105080002E838E819F8181309105F1F02E813F81A9
:10509000223031052CF48E819F81009761F02FC062
:1050A0002E813F8122303105C1F08E819F81833076
:1050B0009105E1F024C0EAE3F0E08081EC81FD811C
:1050C000808381E089831CC0E7E3F0E08081EC818C
:1050D000FD81808381E0898313C0E4E3F0E0808177
:1050E000EC81FD81808381E089830AC0E1E3F0E007
:1050F0008081EC81FD81808381E0898301C01982F8
:10510000898127960FB6F894DEBF0FBECDBFCF9131
:10511000DF910895DF93CF9300D000D000D0CDB7BA
:10512000DEB79B838A836C831982EA81FB8180814D
:105130008770882F90E08530910514F019824FC058
:10514000EA81FB8180818770282F30E03E832D83A8
:105150008D819E818130910501F12D813E8122302A
:1051600031052CF48D819E81009761F037C02D812F
:105170003E8122303105E1F08D819E8183309105A1
:1051800011F12CC0EBE3F0E08C818083EA81FB819C
:105190008C81818381E0898322C0E8E3F0E08C8107
:1051A0008083EA81FB818C81818381E0898317C0C0
:1051B000E5E3F0E08C818083EA81FB818C8181834F
:1051C00081E089830CC0E2E3F0E08C818083EA8196
:1051D000FB818C81818381E0898301C0198289816F
:1051E00026960FB6F894DEBF0FBECDBFCF91DF91EC
:1051F0000895DF93CF93CDB7DEB727970FB6F89416
:10520000DEBF0FBECDBF9B838A837D836C831982F3
:10521000EA81FB8180818770882F90E0853091053D
:1052200014F0198247C0EA81FB8180818770282FA2
:1052300030E03F832E838E819F8181309105F1F094
:105240002E813F81223031052CF48E819F81009781
:1052500061F02FC02E813F8122303105C1F08E8157
:105260009F8183309105E1F024C0E9E3F0E0808183
:10527000EC81FD81808381E089831CC0E6E3F0E05E
:105280008081EC81FD81808381E0898313C0E3E329
:10529000F0E08081EC81FD81808381E089830AC018
:1052A000E0E3F0E08081EC81FD81808381E089830F
:1052B00001C01982898127960FB6F894DEBF0FBE10
:1052C000CDBFCF91DF910895DF93CF9300D000D071
:1052D0000F92CDB7DEB79B838A831982EA81FB8167
:1052E00080818770882F90E08530910514F01982B5
:1052F00067C0EA81FB8180818770282F30E03D8381
:105300002C838C819D818130910531F12C813D81EF
:10531000223031052CF48C819D81009761F04FC0C3
:105320002C813D812230310541F18C819D8183307A
:105330009105A1F144C0ABE3B0E0EA81FB8181813A
:1053400080958C93EA81FB8181818095EA81FB8144
:10535000818381E0898334C0A8E3B0E0EA81FB81E6
:10536000818180958C93EA81FB8181818095EA819E
:10537000FB81818381E0898323C0A5E3B0E0EA81DA
:10538000FB81818180958C93EA81FB81818180956D
:10539000EA81FB81818381E0898312C0A2E3B0E0CE
:1053A000EA81FB81818180958C93EA81FB818181F7
:1053B0008095EA81FB81818381E0898301C0198224
:1053C00089810F900F900F900F900F90CF91DF91E8
:1053D0000895DF93CF9300D0CDB7DEB78A831982CB
:1053E0008A81813029F08A81882311F0198222C0B4
:1053F000E6E2F0E08A818170982F9795992797953A
:1054000080818F77892B80838A818170982F91701A
:105410008091FD018E7F892B8093FD018A818170AF
:10542000982F91708091EE018E7F892B8093EE01F1
:1054300081E0898389810F900F90CF91DF9108954A
:10544000DF93CF9300D0CDB7DEB78A8319828A81EC
:10545000803290F48A81883079F08A818A3061F0D4
:105460008A818C3049F08A818E3031F08A81813195
:1054700019F08A818A3111F419820CC0E7E2F0E058
:105480008A818F71982F9F718081807E892B808384
:1054900081E0898389810F900F90CF91DF910895EA
:1054A000DF93CF9300D0CDB7DEB78A8319828A818C
:1054B000882329F08A81813011F019820FC0E7E238
:1054C000F0E08A8181708170982F9295990F907E7B
:1054D00080818F7D892B808381E0898389810F90F2
:1054E0000F90CF91DF910895DF93CF9300D0CDB788
:1054F000DEB78A8319828A81823011F419820FC043
:10550000E7E2F0E08A818370982F9295990F990FC6
:10551000907C80818F73892B808381E0898389814E
:105520000F900F90CF91DF910895DF93CF930F925B
:10553000CDB7DEB71982E6E2F0E080818064808337
:1055400081E0898389810F90CF91DF910895DF9366
:10555000CF9300D0CDB7DEB78A8319828A81883095
:1055600041F4E6E2F0E080818F7D808381E08983F1
:1055700019C0E6E2F0E080818072882329F4E6E237
:10558000F0E0808180628083E0E5F0E08A818770CE
:10559000982F9295990F907E80818F71892B8083AF
:1055A00081E0898389810F900F90CF91DF910895D9
:1055B000DF93CF9300D0CDB7DEB78A831982E6E2BE
:1055C000F0E08A818770982F97708081887F892B7F
:1055D000808381E0898389810F900F90CF91DF9143
:1055E0000895DF93CF9300D000D000D0CDB7DEB7C1
:1055F0008C837E836D831B821A82198289819A81B2
:1056000001969A838983E6E2F0E0808180718823A5
:10561000A9F38091F00181708823E9F4E4E2F0E0DD
:105620008081882F90E0ED81FE8191838083ED81E0
:10563000FE8120813181E5E2F0E08081882F90E0D9
:10564000982F8827822B932BED81FE819183808375
:1056500081E08B8327C08091F0018170882311F154
:10566000E4E2F0E080818295869586958370882FAC
:1056700090E0ED81FE8191838083ED81FE81208128
:105680003181E5E2F0E08081882F90E0880F991F5A
:10569000880F991F822B932BED81FE81918380834C
:1056A00081E08B838B8126960FB6F894DEBF0FBE08
:1056B000CDBFCF91DF910895DF93CF9300D0CDB7C9
:1056C000DEB78A8319828A81882329F08A81813012
:1056D00011F019820FC0E6E2F0E08A8181708170DA
:1056E000982F990F990F990F8081877F892B80833D
:1056F00081E0898389810F900F90CF91DF91089588
:10570000DF93CF9300D00F92CDB7DEB79B838A8310
:105710001982E6E2F0E0808182958F708170EA81E3
:10572000FB81808381E0898389810F900F900F90A6
:10573000CF91DF910895DF93CF930F92CDB7DEB76E
:105740001982E6E2F0E080818F7E808381E08983A8
:1057500089810F90CF91DF910895DF93CF9300D08F
:105760000F92CDB7DEB79B838A8319828A819B8192
:105770009093ED018093EC0181E0898389810F9002
:105780000F900F90CF91DF910895DF93CF930F92F9
:10579000CDB7DEB719828091EE018170982F91709C
:1057A0008091FD018E7F892B8093FD018091EF0117
:1057B0008093FE018091F3018170982F9170809108
:1057C00002028E7F892B809302028091F00181700A
:1057D000982F91708091FF018E7F892B8093FF011C
:1057E0008091F201809301028091F1018093000287
:1057F00081E0898389810F90CF91DF9108951F9275
:105800000F920FB60F9211242F933F934F935F93F4
:105810006F937F938F939F93AF93BF93EF93FF9378
:10582000DF93CF93CDB7DEB7E091EC01F091ED01BE
:105830000995CF91DF91FF91EF91BF91AF919F912A
:105840008F917F916F915F914F913F912F910F9029
:105850000FBE0F901F901895DF93CF9300D000D00C
:10586000CDB7DEB79B838A836C8319828C818130AC
:1058700029F48A819B8102960E940F208A819B8154
:1058800003960E940F208A819B8104960E940F201C
:105890008A819B8105960E940F208A819B810696B2
:1058A0000E940F20EA81FB818181882379F48A811B
:1058B0009B8107960E940F208A819B8108960E94F7
:1058C0000F208A819B8109960E940F2081E08983A5
:1058D00089810F900F900F900F90CF91DF910895D5
:1058E000DF93CF9300D00F92CDB7DEB79B838A832F
:1058F0001982EA81FB818181882309F095C08A8120
:105900009B81AC014D5F5F4FEA81FB818081982FC5
:10591000EA81FB81828581708927282FCA01622F45
:105920000E94DC238A819B81AC014C5F5F4FEA813E
:10593000FB818081982FEA81FB8182858695817029
:105940008927282FCA01622F0E94DC238A819B812C
:10595000AC014B5F5F4FEA81FB818081982FEA8128
:10596000FB8182858695869581708927282FCA01BB
:10597000622F0E94DC238A819B81AC014A5F5F4FCA
:10598000EA81FB818081982FEA81FB81828586955F
:105990008695869581708927282FCA01622F0E94DB
:1059A000DC238A819B81AC01495F5F4FEA81FB81E7
:1059B0008081982FEA81FB81828582958F7081702A
:1059C0008927282FCA01622F0E94DC238A819B81AC
:1059D000AC01485F5F4FEA81FB818081982FEA81AB
:1059E000FB81828582958695877081708927282F13
:1059F000CA01622F0E94DC238A819B81AC01475F30
:105A00005F4FEA81FB818081982FEA81FB8182854B
:105A1000829586958695837081708927282FCA0183
:105A2000622F0E94DC2343C0EA81FB8181818130A7
:105A3000F1F58A819B819C012D5F3F4FEA81FB81BB
:105A40008285482F4170C901642F0E94DC238A811E
:105A50009B81AC014C5F5F4FEA81FB81828586951B
:105A6000282F2170CA01622F0E94DC238A819B812A
:105A7000AC014B5F5F4FEA81FB81828586958695FD
:105A8000282F2170CA01622F0E94DC238A819B810A
:105A9000AC014A5F5F4FEA81FB81828586958695DE
:105AA0008695282F2170CA01622F0E94DC2381E095
:105AB000898389810F900F900F90CF91DF91089586
:105AC000DF93CF93CDB7DEB768970FB6F894DEBFFC
:105AD0000FBECDBF9B8B8A8B1982CE0102969D8B08
