:100000000C942A000C9447000C9447000C94470071
:100010000C9447000C9447000C9447000C94470044
:100020000C9447000C9447000C9447000C94470034
:100030000C9447000C9447000C9447000C94470024
:100040000C9447000C9447000C9447000C94470014
:100050000C94470011241FBECFE5D8E0DEBFCDBF12
:1000600010E0A0E6B0E0ECE5FCE002C005900D92E7
:10007000A436B107D9F710E0A4E6B0E001C01D92A4
:10008000A536B107E1F70E9415060C942C060C94D6
:100090000000FC01E0814E2F46954695469547703D
:1000A0008E2F8770282F30E02130310589F12230E2
:1000B00031051CF4232B51F08FC02230310509F497
:1000C00048C02330310509F087C064C0E295E69549
:1000D000E695E170F0E0309769F0E130F10509F064
:1000E0007BC080911A0002C0EE0FFF1F4A95E2F715
:1000F0008E2B0BC020911A0081E090E002C0880F87
:10010000991F4A95E2F78095822380931A0062C076
:10011000E295E695E695E170F0E0309769F0E13020
:10012000F10509F059C08091180002C0EE0FFF1FC1
:100130004A95E2F78E2B0AC09091180002C0220F58
:10014000331F4A95E2F7822F809589238093180008
:1001500041C0E295E695E695E170F0E0309761F0F8
:10016000E130F105C9F58091140002C0EE0FFF1FC8
:100170004A95E2F78E2B0BC02091140081E090E0AD
:1001800002C0880F991F4A95E2F7809582238093D9
:10019000140020C0E295E695E695E170F0E0309716
:1001A00061F0E130F105C1F48091110002C0EE0F61
:1001B000FF1F4A95E2F78E2B0BC02091110081E0C2
:1001C00090E002C0880F991F4A95E2F7809582233C
:1001D0008093110081E0089580E00895FC01DB0127
:1001E0008081282F2695269526952770877090E088
:1001F0008130910581F0823091051CF4892B41F00A
:1002000005C08230910551F00397A1F080E0089578
:1002100080911A0005C08091180002C080911400DE
:1002200090E002C0959587952A95E2F781708C93AE
:1002300081E008958091110090E002C09595879526
:100240002A95E2F781708C9381E00895FC019081FA
:10025000492F469546954695477096FD97C09770ED
:10026000292F30E02130310579F1223031051CF49D
:10027000232B51F08BC02230310509F444C02330C8
:10028000310509F083C05FC0662381F0613009F059
:100290007DC080911B0021E030E002C0220F331F9F
:1002A0004A95E2F7822B80931B001DC080911B00B2
:1002B00021E030E002C0220F331F4A95E2F720957B
:1002C000282320931B005DC0662381F0613009F074
:1002D0005DC08091170002C0220F331F4A95E2F7DC
:1002E000822B80931700808180684DC08091170019
:1002F00002C0220F331F4A95E2F7922F9095982360
:10030000909317003EC0662381F0613009F03EC033
:100310008091150021E030E002C0220F331F4A9582
:10032000E2F7822B80931500DECF8091150021E04B
:1003300030E002C0220F331F4A95E2F720952823B0
:10034000209315001EC0662379F06130F9F4809186
:10035000120021E030E002C0220F331F4A95E2F77D
:10036000822B80931200BFCF8091120021E030E0F9
:1003700002C0220F331F4A95E2F7209528232093CD
:10038000120080818F77808381E0089580E0089556
:10039000FC01DB01E0812E2F2695269526952770FE
:1003A000E6FF26C0E770F0E0E130F10579F0E230D9
:1003B000F1051CF4EF2B39F01BC0E230F10549F0D8
:1003C0003397B1F409C08091190008C080911600DC
:1003D00005C08091130002C08091100090E002C01F
:1003E000959587952A95E2F781708C9381E0089521
:1003F00080E00895FC018081482F469546954695FA
:10040000477086FD53C08770282F30E021303105BA
:10041000D9F0223031051CF4232B49F047C022309B
:100420003105E9F02330310509F040C025C02091A5
:10043000190081E090E002C0880F991F4A95E2F709
:1004400028272093190024C08091160002C0220F93
:10045000331F4A95E2F782278093160019C0209136
:10046000130081E090E002C0880F991F4A95E2F7DF
:100470002827209313000CC02091100081E090E009
:1004800002C0880F991F4A95E2F728272093100091
:100490009081892F881F8827881F809587958827B6
:1004A00087959F77982B908381E0089580E0089549
:1004B000CF93DF93EC01888186FD07C0CE010E94B7
:1004C0004900CE0160E00E94260180E0DF91CF91DB
:1004D0000895FC018081877090E08530910504F5D6
:1004E0008130910581F0823091051CF4892B39F01F
:1004F00017C08230910559F0039791F40CC08281A6
:1005000080931A000BC082818093180007C08281FB
:100510008093140003C082818093110081E00895CC
:1005200080E00895FC01DB018081877090E08530D8
:100530009105ECF48130910579F0823091051CF43D
:10054000892B39F014C08230910549F0039779F472
:1005500009C080911A0008C08091180005C08091E0
:10056000140002C0809111008C9381E0089580E016
:100570000895FC018081877090E085309105ECF44E
:100580008130910579F0823091051CF4892B39F086
:1005900014C08230910549F0039779F409C0609343
:1005A0001B0008C06093170005C06093150002C0CF
:1005B00060931200618381E0089580E00895FC015A
:1005C000DB018081877090E085309105ECF481300B
:1005D000910579F0823091051CF4892B39F014C013
:1005E0008230910549F0039779F409C08091190090
:1005F00008C08091160005C08091130002C0809150
:1006000010008C9381E0089580E00895FC018081C2
:10061000877090E0853091052CF58130910589F047
:10062000823091051CF4892B39F01CC08230910571
:1006300069F00397B9F40FC0818180958093190008
:100640000EC0818180958093160009C081818095BC
:100650008093130004C08181809580931000818372
:1006600081E0089580E00895AF92BF92CF92DF922B
:10067000EF92FF920F931F93DF93CF9300D0CDB7EC
:10068000DEB78C017B011982FC019081392F377014
:100690008A81807C292F2873832B822B8064907819
:1006A0008F77892B8A835E010894A11CB11CCE012F
:1006B0000296B5010E94C801882309F446C0F801DA
:1006C0008081998186FD1AC0913089F580EB94E094
:1006D00020E931E0F9013197F1F70197D9F705C029
:1006E000C601B5010E94C80105C092E0C92ED12CF7
:1006F000CC0EDD1E8981882399F71FC09923E9F468
:1007000080EB94E020E931E0F9013197F1F70197AE
:10071000D9F705C0C601B5010E94C80105C082E035
:10072000C82ED12CCC0EDD1E8981813099F7F701BE
:100730001082F80180818F7706C081E0F701808305
:10074000F80180818068808381E00F900F90CF91C5
:10075000DF911F910F91FF90EF90DF90CF90BF90AE
:10076000AF900895DF93CF930F92CDB7DEB7FC0122
:10077000E0812E2F2770822F90E0059714F080E003
:1007800011C08981807C9E2F9873822B892B806475
:10079000E0788F778E2B8983CE0101960E944900E5
:1007A000811181E00F90CF91DF910895AF92BF92B8
:1007B000CF92DF92EF92FF920F931F93DF93CF932D
:1007C0000F92CDB7DEB77C01FC011081129511703C
:1007D00050E001E05E010894A11CB11C80E9C82E24
:1007E00081E0D82E1EC0F701618170E002C07595CE
:1007F00067952A95E2F7609561704770812F877041
:10080000880F880F880F962F979599279795842B97
:10081000892B8983C5010E942601811181E0582F0F
:100820001150212F30E0F7014081842F8695869565
:100830008695817090E028173907ACF684EC99E032
:10084000F6013197F1F70197D9F7015051F7852F4C
:100850000F90CF91DF911F910F91FF90EF90DF905C
:10086000CF90BF90AF900895CF92DF92EF92FF921A
:100870001F93DF93CF930F92CDB7DEB77C01FC01BE
:1008800010811295117050E06E010894C11CD11CAA
:1008900010C04770812F8770880F880F880F842BB6
:1008A0008983C60160E00E942601811181E0582FF2
:1008B0001150212F30E0F7014081842F86958695D5
:1008C0008695817090E0281739071CF7852F0F90C7
:1008D000CF91DF911F91FF90EF90DF90CF9008951F
:1008E000CF92DF92EF92FF921F93DF93CF930F92FD
:1008F000CDB7DEB77C01FC0110811295117030E09C
:100900006E010894C11CD11C1DC0F701618170E00B
:1009100002C0759567954A95E2F761702770812F3F
:100920008770880F880F880F962F9795992797952E
:10093000822B892B8983C6010E942601811181E0C7
:10094000382F1150412F50E0F7012081822F8695DA
:1009500086958695817090E048175907B4F6832FE5
:100960000F90CF91DF911F91FF90EF90DF90CF908C
:1009700008950F931F93DF93CF930F92CDB7DEB7F8
:100980008C01FC018081982F929596959695937095
:100990009795992797958F73892B8983CE01019617
:1009A00060E00E942601882371F09981991F9927A0
:1009B000991F9295990F990F907CF80180818F7BF8
:1009C000892B808381E00F90CF91DF911F910F9150
:1009D00008950F931F93DF93CF930F92CDB7DEB798
:1009E0008C01FC018081982F929596959695937035
:1009F0009795992797958F73892B8983CE010196B7
:100A000061E00E942601882371F09981991F99273E
:100A1000991F9295990F990F907CF80180818F7B97
:100A2000892B808381E00F90CF91DF911F910F91EF
:100A30000895CF92DF92EF92FF921F93DF93CF93AF
:100A40000F92CDB7DEB77C01FC012081822F877029
:100A500090E0059714F050E025C0122F1295117008
:100A600050E06E010894C11CD11C0FC04770812F4B
:100A70008770880F880F880F482B4983C6010E9412
:100A80004900811181E0582F1150212F30E0F701EA
:100A90004081842F869586958695817090E02817F1
:100AA000390724F7852F0F90CF91DF911F91FF9089
:100AB000EF90DF90CF9008950F931F93DF93CF9324
:100AC0000F92CDB7DEB7FC01E0812E2F2770822F69
:100AD00090E0059704F59E2F9873E295E695E695CC
:100AE000E3708E2F879588278795292B282B2983BC
:100AF0008E010F5F1F4FC8010E944900882359F0E3
:100B00006981661F6627661FC8010E942601882327
:100B100019F081E001C080E00F90CF91DF911F912B
:100B20000F910895AF92BF92CF92DF92EF92FF9212
:100B30000F931F93DF93CF930F92CDB7DEB78C0146
:100B4000FC018081982F9295969596959370979534
:100B5000992797958F73892B8983FF24F3946E01CE
:100B60000894C11CD11C90E9A92E91E0B92EC601B0
:100B70000E94FA01882311F4EE240FC09981991F75
:100B80009927991F9295990F990F907CF801808170
:100B90008F7B892B8083EE24E39484EC99E0F5012C
:100BA0003197F1F70197D9F7C6010E94FA01FA943B
:100BB000F1F68E2D0F90CF91DF911F910F91FF9045
:100BC000EF90DF90CF90BF90AF9008950F931F9359
:100BD000DF93CF930F92CDB7DEB78C01FC018081FC
:100BE000982F9295969596959370979599279795A6
:100BF0008F73892B8983CE0101960E94FA01882385
:100C000071F09981991F9927991F9295990F990FC2
:100C1000907CF80180818F7B892B808381E00F900D
:100C2000CF91DF911F910F91089580E690E00E948F
:100C30005C0581E690E00E94B20381E690E062E606
:100C400070E00E943403809162008130B1F780E649
:0C0C500090E00E949205F1CFF894FFCFD5
:040C5C00020301008E
:00000001FF
